{
  "contractName": "RedEnvelope",
  "abi": [
    {
      "inputs": [
        {
          "internalType": "uint256",
          "name": "_count",
          "type": "uint256"
        },
        {
          "internalType": "bool",
          "name": "_isEqual",
          "type": "bool"
        }
      ],
      "name": "deposit",
      "outputs": [],
      "stateMutability": "payable",
      "type": "function",
      "payable": true
    },
    {
      "inputs": [
        {
          "internalType": "address",
          "name": "_owner",
          "type": "address"
        }
      ],
      "name": "grabbedRedPack",
      "outputs": [],
      "stateMutability": "nonpayable",
      "type": "function"
    },
    {
      "inputs": [],
      "name": "getPackList",
      "outputs": [
        {
          "components": [
            {
              "internalType": "address",
              "name": "owner",
              "type": "address"
            },
            {
              "internalType": "uint256",
              "name": "totalAmount",
              "type": "uint256"
            },
            {
              "internalType": "uint256",
              "name": "count",
              "type": "uint256"
            },
            {
              "internalType": "bool",
              "name": "isEqual",
              "type": "bool"
            },
            {
              "internalType": "uint256",
              "name": "packId",
              "type": "uint256"
            }
          ],
          "internalType": "struct RedEnvelope.PackInfo[]",
          "name": "",
          "type": "tuple[]"
        }
      ],
      "stateMutability": "view",
      "type": "function",
      "constant": true
    }
  ],
  "bytecode": "0x608060405234801561001057600080fd5b5061122f806100206000396000f3fe608060405260043610610051576000357c01000000000000000000000000000000000000000000000000000000009004806301d59e24146100565780631bd54337146100815780639a408321146100aa575b600080fd5b34801561006257600080fd5b5061006b6100c6565b6040516100789190610bc9565b60405180910390f35b34801561008d57600080fd5b506100a860048036038101906100a39190610c1c565b61026d565b005b6100c460048036038101906100bf9190610ca1565b610607565b005b60606000808054905067ffffffffffffffff8111156100e8576100e7610ce1565b5b60405190808252806020026020018201604052801561012157816020015b61010e6109f6565b8152602001906001900390816101065790505b50905060005b600080549050811015610265576040518060a001604052806000838154811061015357610152610d10565b5b906000526020600020906005020160000160009054906101000a900473ffffffffffffffffffffffffffffffffffffffff1673ffffffffffffffffffffffffffffffffffffffff168152602001600083815481106101b4576101b3610d10565b5b9060005260206000209060050201600101548152602001600083815481106101df576101de610d10565b5b90600052602060002090600502016002015481526020016000838154811061020a57610209610d10565b5b906000526020600020906005020160030160009054906101000a900460ff16151581526020018281525082828151811061024757610246610d10565b5b6020026020010181905250808061025d90610d6e565b915050610127565b508091505090565b6000610278826108ab565b9050600080828154811061028f5761028e610d10565b5b9060005260206000209060050201905060008160020154116102e6576040517f08c379a00000000000000000000000000000000000000000000000000000000081526004016102dd90610e13565b60405180910390fd5b600081600101541161032d576040517f08c379a000000000000000000000000000000000000000000000000000000000815260040161032490610e7f565b60405180910390fd5b8060040160003373ffffffffffffffffffffffffffffffffffffffff1673ffffffffffffffffffffffffffffffffffffffff16815260200190815260200160002060009054906101000a900460ff16156103bc576040517f08c379a00000000000000000000000000000000000000000000000000000000081526004016103b390610eeb565b60405180910390fd5b6001816002015403610422573373ffffffffffffffffffffffffffffffffffffffff166108fc82600101549081150290604051600060405180830381858888f19350505050158015610412573d6000803e3d6000fd5b506000816001018190555061058e565b8060030160009054906101000a900460ff16156104b95760008160020154826001015461044f9190610f3a565b9050808260010160008282546104659190610f6b565b925050819055503373ffffffffffffffffffffffffffffffffffffffff166108fc829081150290604051600060405180830381858888f193505050501580156104b2573d6000803e3d6000fd5b505061058d565b600060016008423385600201546040516020016104d893929190611014565b60405160208183030381529060405280519060200120600190046104fc9190611051565b6105069190611082565b90506000600a82846001015461051c91906110b6565b6105269190610f3a565b90508083600101600082825461053c9190610f6b565b925050819055503373ffffffffffffffffffffffffffffffffffffffff166108fc829081150290604051600060405180830381858888f19350505050158015610589573d6000803e3d6000fd5b5050505b5b60018160040160003373ffffffffffffffffffffffffffffffffffffffff1673ffffffffffffffffffffffffffffffffffffffff16815260200190815260200160002060006101000a81548160ff0219169083151502179055508060020160008154809291906105fd906110f8565b9190505550505050565b6000341161064a576040517f08c379a00000000000000000000000000000000000000000000000000000000081526004016106419061116d565b60405180910390fd5b60005b6000805490508110156107e0573373ffffffffffffffffffffffffffffffffffffffff166000828154811061068557610684610d10565b5b906000526020600020906005020160000160009054906101000a900473ffffffffffffffffffffffffffffffffffffffff1673ffffffffffffffffffffffffffffffffffffffff161480156106fe575060008082815481106106ea576106e9610d10565b5b906000526020600020906005020160010154115b156107cd57600080828154811061071857610717610d10565b5b9060005260206000209060050201600101549050600080838154811061074157610740610d10565b5b906000526020600020906005020160010181905550600080838154811061076b5761076a610d10565b5b9060005260206000209060050201600201819055503373ffffffffffffffffffffffffffffffffffffffff166108fc829081150290604051600060405180830381858888f193505050501580156107c6573d6000803e3d6000fd5b50506107e0565b80806107d890610d6e565b91505061064d565b5060006001816001815401808255809150500390600052602060002090505060008060016000805490506108149190610f6b565b8154811061082557610824610d10565b5b90600052602060002090600502019050338160000160006101000a81548173ffffffffffffffffffffffffffffffffffffffff021916908373ffffffffffffffffffffffffffffffffffffffff160217905550828160020181905550348160010181905550818160030160006101000a81548160ff021916908315150217905550505050565b600080600090505b6000805490508110156109b5578273ffffffffffffffffffffffffffffffffffffffff16600082815481106108eb576108ea610d10565b5b906000526020600020906005020160000160009054906101000a900473ffffffffffffffffffffffffffffffffffffffff1673ffffffffffffffffffffffffffffffffffffffff16148015610964575060008082815481106109505761094f610d10565b5b906000526020600020906005020160020154115b8015610994575060008082815481106109805761097f610d10565b5b906000526020600020906005020160010154115b156109a257809150506109f1565b80806109ad90610d6e565b9150506108b3565b506040517f08c379a00000000000000000000000000000000000000000000000000000000081526004016109e8906111d9565b60405180910390fd5b919050565b6040518060a00160405280600073ffffffffffffffffffffffffffffffffffffffff1681526020016000815260200160008152602001600015158152602001600081525090565b600081519050919050565b600082825260208201905092915050565b6000819050602082019050919050565b600073ffffffffffffffffffffffffffffffffffffffff82169050919050565b6000610a9482610a69565b9050919050565b610aa481610a89565b82525050565b6000819050919050565b610abd81610aaa565b82525050565b60008115159050919050565b610ad881610ac3565b82525050565b60a082016000820151610af46000850182610a9b565b506020820151610b076020850182610ab4565b506040820151610b1a6040850182610ab4565b506060820151610b2d6060850182610acf565b506080820151610b406080850182610ab4565b50505050565b6000610b528383610ade565b60a08301905092915050565b6000602082019050919050565b6000610b7682610a3d565b610b808185610a48565b9350610b8b83610a59565b8060005b83811015610bbc578151610ba38882610b46565b9750610bae83610b5e565b925050600181019050610b8f565b5085935050505092915050565b60006020820190508181036000830152610be38184610b6b565b905092915050565b600080fd5b610bf981610a89565b8114610c0457600080fd5b50565b600081359050610c1681610bf0565b92915050565b600060208284031215610c3257610c31610beb565b5b6000610c4084828501610c07565b91505092915050565b610c5281610aaa565b8114610c5d57600080fd5b50565b600081359050610c6f81610c49565b92915050565b610c7e81610ac3565b8114610c8957600080fd5b50565b600081359050610c9b81610c75565b92915050565b60008060408385031215610cb857610cb7610beb565b5b6000610cc685828601610c60565b9250506020610cd785828601610c8c565b9150509250929050565b7f4e487b7100000000000000000000000000000000000000000000000000000000600052604160045260246000fd5b7f4e487b7100000000000000000000000000000000000000000000000000000000600052603260045260246000fd5b7f4e487b7100000000000000000000000000000000000000000000000000000000600052601160045260246000fd5b6000610d7982610aaa565b91507fffffffffffffffffffffffffffffffffffffffffffffffffffffffffffffffff8203610dab57610daa610d3f565b5b600182019050919050565b600082825260208201905092915050565b7f636f756e74206d757374203e2030000000000000000000000000000000000000600082015250565b6000610dfd600e83610db6565b9150610e0882610dc7565b602082019050919050565b60006020820190508181036000830152610e2c81610df0565b9050919050565b7f746f74616c416d6f756e74206d757374203e2030000000000000000000000000600082015250565b6000610e69601483610db6565b9150610e7482610e33565b602082019050919050565b60006020820190508181036000830152610e9881610e5c565b9050919050565b7f796f752068617665206772616262656400000000000000000000000000000000600082015250565b6000610ed5601083610db6565b9150610ee082610e9f565b602082019050919050565b60006020820190508181036000830152610f0481610ec8565b9050919050565b7f4e487b7100000000000000000000000000000000000000000000000000000000600052601260045260246000fd5b6000610f4582610aaa565b9150610f5083610aaa565b925082610f6057610f5f610f0b565b5b828204905092915050565b6000610f7682610aaa565b9150610f8183610aaa565b9250828203905081811115610f9957610f98610d3f565b5b92915050565b6000819050919050565b610fba610fb582610aaa565b610f9f565b82525050565b60006c0100000000000000000000000082029050919050565b6000610fe482610fc0565b9050919050565b6000610ff682610fd9565b9050919050565b61100e61100982610a89565b610feb565b82525050565b60006110208286610fa9565b6020820191506110308285610ffd565b6014820191506110408284610fa9565b602082019150819050949350505050565b600061105c82610aaa565b915061106783610aaa565b92508261107757611076610f0b565b5b828206905092915050565b600061108d82610aaa565b915061109883610aaa565b92508282019050808211156110b0576110af610d3f565b5b92915050565b60006110c182610aaa565b91506110cc83610aaa565b92508282026110da81610aaa565b915082820484148315176110f1576110f0610d3f565b5b5092915050565b600061110382610aaa565b91506000820361111657611115610d3f565b5b600182039050919050565b7f6d757374203e2030000000000000000000000000000000000000000000000000600082015250565b6000611157600883610db6565b915061116282611121565b602082019050919050565b600060208201905081810360008301526111868161114a565b9050919050565b7f4e6f7420666f756e640000000000000000000000000000000000000000000000600082015250565b60006111c3600983610db6565b91506111ce8261118d565b602082019050919050565b600060208201905081810360008301526111f2816111b6565b905091905056fea26469706673582212200b8977f689924ebd656f3a80f993c7d55c7c884bc9ef33e83d94260376d1399164736f6c63430008150033",
  "immutableReferences": {},
  "source": "// SPDX-License-Identifier: GPL-3.0\npragma solidity >=0.8.20 <0.9.0;\n\ncontract RedEnvelope {\n    struct Pack {\n        address payable owner;\n        uint256 totalAmount; //\n        uint256 count; //\n        bool isEqual; // \n        mapping(address => bool) isGrabbed; // \n    }\n\n    struct PackInfo {\n        address owner;\n        uint256 totalAmount;\n        uint256 count;\n        bool isEqual;\n        uint256 packId; // ID\n    }\n\n    Pack[] internal packs; // \n\n    function deposit(uint256 _count, bool _isEqual) public payable {\n        require(msg.value > 0, \"must > 0\");\n\n        // owner\n        for (uint256 i = 0; i < packs.length; i++) {\n            if (packs[i].owner == msg.sender && packs[i].totalAmount > 0) {\n                // owner\n                uint256 remainingAmount = packs[i].totalAmount;\n                packs[i].totalAmount = 0;\n                packs[i].count = 0;\n\n                // \n                payable(msg.sender).transfer(remainingAmount);\n                break;\n            }\n        }\n\n        packs.push();\n        Pack storage newPack = packs[packs.length - 1];\n        newPack.owner = payable(msg.sender);\n        newPack.count = _count;\n        newPack.totalAmount = msg.value;\n        newPack.isEqual = _isEqual;\n    }\n\n    function findPackByOwner(address _owner) internal view returns (uint) {\n        for (uint i = 0; i < packs.length; i++) {\n            if (\n                packs[i].owner == _owner &&\n                packs[i].count > 0 &&\n                packs[i].totalAmount > 0\n            ) {\n                return i;\n            }\n        }\n        revert(\"Not found\");\n    }\n\n    function grabbedRedPack(address _owner) public {\n        uint256 index = findPackByOwner(_owner);\n        Pack storage p = packs[index];\n\n        require(p.count > 0, \"count must > 0\");\n        require(p.totalAmount > 0, \"totalAmount must > 0\");\n        require(!p.isGrabbed[msg.sender], \"you have grabbed\");\n\n        if (p.count == 1) {\n            payable(msg.sender).transfer(p.totalAmount);\n            p.totalAmount = 0;\n        } else {\n            if (p.isEqual) {\n                uint256 amount = p.totalAmount / p.count;\n\n                p.totalAmount -= amount;\n                payable(msg.sender).transfer(amount);\n            } else {\n                uint256 random = (uint256(\n                    keccak256(\n                        abi.encodePacked(block.timestamp, msg.sender, p.count)\n                    )\n                ) % 8) + 1;\n\n                uint256 amount = (p.totalAmount * random) / 10;\n                p.totalAmount -= amount;\n                payable(msg.sender).transfer(amount);\n            }\n        }\n\n        p.isGrabbed[msg.sender] = true;\n        p.count--;\n    }\n\n    function getPackList() public view returns (PackInfo[] memory) {\n        PackInfo[] memory packInfos = new PackInfo[](packs.length);\n\n        for (uint256 i = 0; i < packs.length; i++) {\n            packInfos[i] = PackInfo({\n                owner: packs[i].owner,\n                totalAmount: packs[i].totalAmount,\n                count: packs[i].count,\n                isEqual: packs[i].isEqual,\n                packId: i\n            });\n        }\n\n        return packInfos;\n    }\n}\n",
  "sourcePath": "/Users/syefeng/Desktop/yd-study/wallet-sol/contracts/RedEnvelope.sol",
  "compiler": {
    "name": "solc",
    "version": "0.8.21+commit.d9974bed.Emscripten.clang"
  },
  "schemaVersion": "3.4.16",
  "updatedAt": "2025-05-28T04:43:13.531Z",
  "networkType": "ethereum",
  "devdoc": {
    "kind": "dev",
    "methods": {},
    "version": 1
  },
  "userdoc": {
    "kind": "user",
    "methods": {},
    "version": 1
  }
}