{
  "contractName": "CourseMarket",
  "abi": [
    {
      "inputs": [],
      "stateMutability": "nonpayable",
      "type": "constructor"
    },
    {
      "anonymous": false,
      "inputs": [
        {
          "indexed": true,
          "internalType": "uint256",
          "name": "courseId",
          "type": "uint256"
        },
        {
          "indexed": true,
          "internalType": "address",
          "name": "student",
          "type": "address"
        },
        {
          "indexed": false,
          "internalType": "uint256",
          "name": "price",
          "type": "uint256"
        },
        {
          "indexed": false,
          "internalType": "uint256",
          "name": "timestamp",
          "type": "uint256"
        }
      ],
      "name": "CoursePurchased",
      "type": "event"
    },
    {
      "anonymous": false,
      "inputs": [
        {
          "indexed": true,
          "internalType": "address",
          "name": "previousOwner",
          "type": "address"
        },
        {
          "indexed": true,
          "internalType": "address",
          "name": "newOwner",
          "type": "address"
        }
      ],
      "name": "OwnershipTransferred",
      "type": "event"
    },
    {
      "inputs": [
        {
          "internalType": "uint256",
          "name": "",
          "type": "uint256"
        },
        {
          "internalType": "uint256",
          "name": "",
          "type": "uint256"
        }
      ],
      "name": "coursePurchasers",
      "outputs": [
        {
          "internalType": "address",
          "name": "",
          "type": "address"
        }
      ],
      "stateMutability": "view",
      "type": "function"
    },
    {
      "inputs": [
        {
          "internalType": "uint256",
          "name": "",
          "type": "uint256"
        }
      ],
      "name": "courses",
      "outputs": [
        {
          "internalType": "uint256",
          "name": "courseId",
          "type": "uint256"
        },
        {
          "internalType": "string",
          "name": "title",
          "type": "string"
        },
        {
          "internalType": "string",
          "name": "description",
          "type": "string"
        },
        {
          "internalType": "uint256",
          "name": "price",
          "type": "uint256"
        },
        {
          "internalType": "bool",
          "name": "isActive",
          "type": "bool"
        },
        {
          "internalType": "uint256",
          "name": "totalPurchases",
          "type": "uint256"
        }
      ],
      "stateMutability": "view",
      "type": "function"
    },
    {
      "inputs": [
        {
          "internalType": "uint256",
          "name": "",
          "type": "uint256"
        },
        {
          "internalType": "address",
          "name": "",
          "type": "address"
        }
      ],
      "name": "hasPurchased",
      "outputs": [
        {
          "internalType": "bool",
          "name": "",
          "type": "bool"
        }
      ],
      "stateMutability": "view",
      "type": "function"
    },
    {
      "inputs": [],
      "name": "metaCoinToken",
      "outputs": [
        {
          "internalType": "contract IMetaCoin",
          "name": "",
          "type": "address"
        }
      ],
      "stateMutability": "view",
      "type": "function"
    },
    {
      "inputs": [],
      "name": "owner",
      "outputs": [
        {
          "internalType": "address",
          "name": "",
          "type": "address"
        }
      ],
      "stateMutability": "view",
      "type": "function"
    },
    {
      "inputs": [],
      "name": "renounceOwnership",
      "outputs": [],
      "stateMutability": "nonpayable",
      "type": "function"
    },
    {
      "inputs": [
        {
          "internalType": "address",
          "name": "",
          "type": "address"
        },
        {
          "internalType": "uint256",
          "name": "",
          "type": "uint256"
        }
      ],
      "name": "studentPurchases",
      "outputs": [
        {
          "internalType": "uint256",
          "name": "courseId",
          "type": "uint256"
        },
        {
          "internalType": "address",
          "name": "student",
          "type": "address"
        },
        {
          "internalType": "uint256",
          "name": "purchaseTime",
          "type": "uint256"
        },
        {
          "internalType": "uint256",
          "name": "paidAmount",
          "type": "uint256"
        }
      ],
      "stateMutability": "view",
      "type": "function"
    },
    {
      "inputs": [
        {
          "internalType": "address",
          "name": "newOwner",
          "type": "address"
        }
      ],
      "name": "transferOwnership",
      "outputs": [],
      "stateMutability": "nonpayable",
      "type": "function"
    },
    {
      "inputs": [
        {
          "internalType": "uint256",
          "name": "_courseId",
          "type": "uint256"
        }
      ],
      "name": "purchaseCourse",
      "outputs": [],
      "stateMutability": "nonpayable",
      "type": "function"
    },
    {
      "inputs": [
        {
          "internalType": "uint256",
          "name": "_amount",
          "type": "uint256"
        }
      ],
      "name": "withdrawTokens",
      "outputs": [],
      "stateMutability": "nonpayable",
      "type": "function"
    },
    {
      "inputs": [],
      "name": "getAllCourses",
      "outputs": [
        {
          "components": [
            {
              "internalType": "uint256",
              "name": "courseId",
              "type": "uint256"
            },
            {
              "internalType": "string",
              "name": "title",
              "type": "string"
            },
            {
              "internalType": "string",
              "name": "description",
              "type": "string"
            },
            {
              "internalType": "uint256",
              "name": "price",
              "type": "uint256"
            },
            {
              "internalType": "bool",
              "name": "isActive",
              "type": "bool"
            },
            {
              "internalType": "uint256",
              "name": "totalPurchases",
              "type": "uint256"
            }
          ],
          "internalType": "struct CourseMarket.Course[]",
          "name": "",
          "type": "tuple[]"
        }
      ],
      "stateMutability": "view",
      "type": "function"
    },
    {
      "inputs": [
        {
          "internalType": "uint256",
          "name": "_courseId",
          "type": "uint256"
        }
      ],
      "name": "getCourse",
      "outputs": [
        {
          "internalType": "string",
          "name": "title",
          "type": "string"
        },
        {
          "internalType": "string",
          "name": "description",
          "type": "string"
        },
        {
          "internalType": "uint256",
          "name": "price",
          "type": "uint256"
        },
        {
          "internalType": "bool",
          "name": "isActive",
          "type": "bool"
        },
        {
          "internalType": "uint256",
          "name": "totalPurchases",
          "type": "uint256"
        }
      ],
      "stateMutability": "view",
      "type": "function"
    },
    {
      "inputs": [
        {
          "internalType": "uint256",
          "name": "_courseId",
          "type": "uint256"
        }
      ],
      "name": "getCoursePurchasers",
      "outputs": [
        {
          "internalType": "address[]",
          "name": "",
          "type": "address[]"
        }
      ],
      "stateMutability": "view",
      "type": "function"
    },
    {
      "inputs": [
        {
          "internalType": "uint256",
          "name": "_courseId",
          "type": "uint256"
        }
      ],
      "name": "getCoursePurchasersCount",
      "outputs": [
        {
          "internalType": "uint256",
          "name": "",
          "type": "uint256"
        }
      ],
      "stateMutability": "view",
      "type": "function"
    },
    {
      "inputs": [
        {
          "internalType": "uint256",
          "name": "_courseId",
          "type": "uint256"
        },
        {
          "internalType": "address",
          "name": "_user",
          "type": "address"
        }
      ],
      "name": "hasUserPurchased",
      "outputs": [
        {
          "internalType": "bool",
          "name": "",
          "type": "bool"
        }
      ],
      "stateMutability": "view",
      "type": "function"
    },
    {
      "inputs": [
        {
          "internalType": "address",
          "name": "_student",
          "type": "address"
        }
      ],
      "name": "getStudentPurchases",
      "outputs": [
        {
          "components": [
            {
              "internalType": "uint256",
              "name": "courseId",
              "type": "uint256"
            },
            {
              "internalType": "address",
              "name": "student",
              "type": "address"
            },
            {
              "internalType": "uint256",
              "name": "purchaseTime",
              "type": "uint256"
            },
            {
              "internalType": "uint256",
              "name": "paidAmount",
              "type": "uint256"
            }
          ],
          "internalType": "struct CourseMarket.Purchase[]",
          "name": "",
          "type": "tuple[]"
        }
      ],
      "stateMutability": "view",
      "type": "function"
    },
    {
      "inputs": [
        {
          "internalType": "address",
          "name": "_student",
          "type": "address"
        }
      ],
      "name": "getStudentPurchaseCount",
      "outputs": [
        {
          "internalType": "uint256",
          "name": "",
          "type": "uint256"
        }
      ],
      "stateMutability": "view",
      "type": "function"
    },
    {
      "inputs": [
        {
          "internalType": "uint256",
          "name": "_courseId",
          "type": "uint256"
        },
        {
          "internalType": "address",
          "name": "_student",
          "type": "address"
        }
      ],
      "name": "checkPurchaseStatus",
      "outputs": [
        {
          "internalType": "bool",
          "name": "purchased",
          "type": "bool"
        },
        {
          "internalType": "uint256",
          "name": "purchaseTime",
          "type": "uint256"
        },
        {
          "internalType": "uint256",
          "name": "paidAmount",
          "type": "uint256"
        }
      ],
      "stateMutability": "view",
      "type": "function"
    },
    {
      "inputs": [],
      "name": "getContractTokenBalance",
      "outputs": [
        {
          "internalType": "uint256",
          "name": "",
          "type": "uint256"
        }
      ],
      "stateMutability": "view",
      "type": "function"
    },
    {
      "inputs": [
        {
          "internalType": "address",
          "name": "_user",
          "type": "address"
        }
      ],
      "name": "getUserTokenBalance",
      "outputs": [
        {
          "internalType": "uint256",
          "name": "",
          "type": "uint256"
        }
      ],
      "stateMutability": "view",
      "type": "function"
    },
    {
      "inputs": [
        {
          "internalType": "address",
          "name": "_user",
          "type": "address"
        }
      ],
      "name": "getUserAllowance",
      "outputs": [
        {
          "internalType": "uint256",
          "name": "",
          "type": "uint256"
        }
      ],
      "stateMutability": "view",
      "type": "function"
    },
    {
      "inputs": [
        {
          "internalType": "address",
          "name": "_token",
          "type": "address"
        },
        {
          "internalType": "uint256",
          "name": "_amount",
          "type": "uint256"
        }
      ],
      "name": "emergencyWithdrawTokens",
      "outputs": [],
      "stateMutability": "nonpayable",
      "type": "function"
    }
  ],
  "bytecode": "0x608060405234801562000010575f80fd5b506200003162000025620005fa60201b60201c565b6200060160201b60201c565b600180819055506040518060c00160405280600181526020016040518060400160405280600881526020017f636f75727365203100000000000000000000000000000000000000000000000081525081526020016040518060400160405280600d81526020017f636f7572736520312064657363000000000000000000000000000000000000008152508152602001600581526020016001151581526020015f81525060025f60058110620000eb57620000ea620006c2565b5b600602015f820151815f015560208201518160010190816200010e919062000953565b50604082015181600201908162000126919062000953565b50606082015181600301556080820151816004015f6101000a81548160ff02191690831515021790555060a082015181600501559050506040518060c00160405280600281526020016040518060400160405280600881526020017f636f75727365203200000000000000000000000000000000000000000000000081525081526020016040518060400160405280600d81526020017f636f7572736520322064657363000000000000000000000000000000000000008152508152602001600581526020016001151581526020015f8152506002600160058110620002115762000210620006c2565b5b600602015f820151815f0155602082015181600101908162000234919062000953565b5060408201518160020190816200024c919062000953565b50606082015181600301556080820151816004015f6101000a81548160ff02191690831515021790555060a082015181600501559050506040518060c00160405280600381526020016040518060400160405280600881526020017f636f75727365203300000000000000000000000000000000000000000000000081525081526020016040518060400160405280600d81526020017f636f7572736520332064657363000000000000000000000000000000000000008152508152602001600581526020016001151581526020015f81525060028060058110620003365762000335620006c2565b5b600602015f820151815f0155602082015181600101908162000359919062000953565b50604082015181600201908162000371919062000953565b50606082015181600301556080820151816004015f6101000a81548160ff02191690831515021790555060a082015181600501559050506040518060c00160405280600481526020016040518060400160405280600881526020017f636f75727365203400000000000000000000000000000000000000000000000081525081526020016040518060400160405280600d81526020017f636f7572736520342064657363000000000000000000000000000000000000008152508152602001600581526020016001151581526020015f81525060026003600581106200045c576200045b620006c2565b5b600602015f820151815f015560208201518160010190816200047f919062000953565b50604082015181600201908162000497919062000953565b50606082015181600301556080820151816004015f6101000a81548160ff02191690831515021790555060a082015181600501559050506040518060c00160405280600581526020016040518060400160405280600881526020017f636f75727365203500000000000000000000000000000000000000000000000081525081526020016040518060400160405280600d81526020017f636f7572736520352064657363000000000000000000000000000000000000008152508152602001600581526020016001151581526020015f8152506002600460058110620005825762000581620006c2565b5b600602015f820151815f01556020820151816001019081620005a5919062000953565b506040820151816002019081620005bd919062000953565b50606082015181600301556080820151816004015f6101000a81548160ff02191690831515021790555060a0820151816005015590505062000a37565b5f33905090565b5f805f9054906101000a900473ffffffffffffffffffffffffffffffffffffffff169050815f806101000a81548173ffffffffffffffffffffffffffffffffffffffff021916908373ffffffffffffffffffffffffffffffffffffffff1602179055508173ffffffffffffffffffffffffffffffffffffffff168173ffffffffffffffffffffffffffffffffffffffff167f8be0079c531659141344cd1fd0a4f28419497f9722a3daafe3b4186f6b6457e060405160405180910390a35050565b7f4e487b71000000000000000000000000000000000000000000000000000000005f52603260045260245ffd5b5f81519050919050565b7f4e487b71000000000000000000000000000000000000000000000000000000005f52604160045260245ffd5b7f4e487b71000000000000000000000000000000000000000000000000000000005f52602260045260245ffd5b5f60028204905060018216806200076b57607f821691505b60208210810362000781576200078062000726565b5b50919050565b5f819050815f5260205f209050919050565b5f6020601f8301049050919050565b5f82821b905092915050565b5f60088302620007e57fffffffffffffffffffffffffffffffffffffffffffffffffffffffffffffffff82620007a8565b620007f18683620007a8565b95508019841693508086168417925050509392505050565b5f819050919050565b5f819050919050565b5f6200083b620008356200082f8462000809565b62000812565b62000809565b9050919050565b5f819050919050565b62000856836200081b565b6200086e620008658262000842565b848454620007b4565b825550505050565b5f90565b6200088462000876565b620008918184846200084b565b505050565b5b81811015620008b857620008ac5f826200087a565b60018101905062000897565b5050565b601f8211156200090757620008d18162000787565b620008dc8462000799565b81016020851015620008ec578190505b62000904620008fb8562000799565b83018262000896565b50505b505050565b5f82821c905092915050565b5f620009295f19846008026200090c565b1980831691505092915050565b5f62000943838362000918565b9150826002028217905092915050565b6200095e82620006ef565b67ffffffffffffffff8111156200097a5762000979620006f9565b5b62000986825462000753565b62000993828285620008bc565b5f60209050601f831160018114620009c9575f8415620009b4578287015190505b620009c0858262000936565b86555062000a2f565b601f198416620009d98662000787565b5f5b8281101562000a0257848901518255600182019150602085019450602081019050620009db565b8683101562000a22578489015162000a1e601f89168262000918565b8355505b6001600288020188555050505b505050505050565b612e798062000a455f395ff3fe608060405234801561000f575f80fd5b5060043610610140575f3560e01c8063731860d9116100b6578063ac83f85b1161007a578063ac83f85b146103cb578063cd131938146103e9578063dc9da2f814610405578063edc1238d14610435578063f2fde38b14610468578063f5aec88c1461048457610140565b8063731860d9146102fa5780638da5cb5b1461032c578063917bb9981461034a57806396f979d21461036657806398388c7e1461039b57610140565b8063315a095d11610108578063315a095d14610226578063317d94531461024257806331cc250214610260578063468257f11461029057806357fceafd146102c0578063715018a6146102f057610140565b8063028f55781461014457806304e48bd1146101745780630b91e28d146101925780630c6ddc0d146101c65780630de7320d146101f6575b5f80fd5b61015e60048036038101906101599190611ec0565b6104b4565b60405161016b9190611f18565b60405180910390f35b61017c610516565b6040516101899190612121565b60405180910390f35b6101ac60048036038101906101a79190612141565b61072e565b6040516101bd9594939291906121c3565b60405180910390f35b6101e060048036038101906101db9190612222565b610940565b6040516101ed919061224d565b60405180910390f35b610210600480360381019061020b9190612266565b6109d6565b60405161021d91906122b3565b60405180910390f35b610240600480360381019061023b9190612141565b610a1e565b005b61024a610bcc565b604051610257919061224d565b60405180910390f35b61027a60048036038101906102759190612141565b610c5e565b6040516102879190612383565b60405180910390f35b6102aa60048036038101906102a59190612222565b610d4b565b6040516102b7919061224d565b60405180910390f35b6102da60048036038101906102d59190612141565b610d94565b6040516102e7919061224d565b60405180910390f35b6102f8610e02565b005b610314600480360381019061030f9190611ec0565b610e15565b604051610323939291906123a3565b60405180910390f35b61033461102a565b60405161034191906122b3565b60405180910390f35b610364600480360381019061035f91906123d8565b611051565b005b610380600480360381019061037b9190612141565b611213565b60405161039296959493929190612416565b60405180910390f35b6103b560048036038101906103b09190612222565b61136a565b6040516103c2919061257e565b60405180910390f35b6103d3611475565b6040516103e091906125f9565b60405180910390f35b61040360048036038101906103fe9190612141565b61148d565b005b61041f600480360381019061041a9190611ec0565b611ab9565b60405161042c9190611f18565b60405180910390f35b61044f600480360381019061044a91906123d8565b611ae2565b60405161045f9493929190612612565b60405180910390f35b610482600480360381019061047d9190612222565b611b47565b005b61049e60048036038101906104999190612222565b611bc9565b6040516104ab919061224d565b60405180910390f35b5f60205f8481526020019081526020015f205f8373ffffffffffffffffffffffffffffffffffffffff1673ffffffffffffffffffffffffffffffffffffffff1681526020019081526020015f205f9054906101000a900460ff16905092915050565b60605f600567ffffffffffffffff81111561053457610533612655565b5b60405190808252806020026020018201604052801561056d57816020015b61055a611dfb565b8152602001906001900390816105525790505b5090505f5b6005811015610726576002816005811061058f5761058e612682565b5b600602016040518060c00160405290815f82015481526020016001820180546105b7906126dc565b80601f01602080910402602001604051908101604052809291908181526020018280546105e3906126dc565b801561062e5780601f106106055761010080835404028352916020019161062e565b820191905f5260205f20905b81548152906001019060200180831161061157829003601f168201915b50505050508152602001600282018054610647906126dc565b80601f0160208091040260200160405190810160405280929190818152602001828054610673906126dc565b80156106be5780601f10610695576101008083540402835291602001916106be565b820191905f5260205f20905b8154815290600101906020018083116106a157829003601f168201915b5050505050815260200160038201548152602001600482015f9054906101000a900460ff1615151515815260200160058201548152505082828151811061070857610707612682565b5b6020026020010181905250808061071e90612739565b915050610572565b508091505090565b6060805f805f60018610158015610746575060058611155b610785576040517f08c379a000000000000000000000000000000000000000000000000000000000815260040161077c906127ca565b60405180910390fd5b5f60018761079391906127e8565b90505f600282600581106107aa576107a9612682565b5b600602016040518060c00160405290815f82015481526020016001820180546107d2906126dc565b80601f01602080910402602001604051908101604052809291908181526020018280546107fe906126dc565b80156108495780601f1061082057610100808354040283529160200191610849565b820191905f5260205f20905b81548152906001019060200180831161082c57829003601f168201915b50505050508152602001600282018054610862906126dc565b80601f016020809104026020016040519081016040528092919081815260200182805461088e906126dc565b80156108d95780601f106108b0576101008083540402835291602001916108d9565b820191905f5260205f20905b8154815290600101906020018083116108bc57829003601f168201915b5050505050815260200160038201548152602001600482015f9054906101000a900460ff16151515158152602001600582015481525050905080602001518160400151826060015183608001518460a0015196509650965096509650505091939590929450565b5f73521cdb596febcade11c70899569338f22f631d5573ffffffffffffffffffffffffffffffffffffffff1663dd62ed3e83306040518363ffffffff1660e01b815260040161099092919061281b565b602060405180830381865afa1580156109ab573d5f803e3d5ffd5b505050506040513d601f19601f820116820180604052508101906109cf9190612856565b9050919050565b6021602052815f5260405f2081815481106109ef575f80fd5b905f5260205f20015f915091509054906101000a900473ffffffffffffffffffffffffffffffffffffffff1681565b610a26611c5d565b8073521cdb596febcade11c70899569338f22f631d5573ffffffffffffffffffffffffffffffffffffffff166370a08231306040518263ffffffff1660e01b8152600401610a7491906122b3565b602060405180830381865afa158015610a8f573d5f803e3d5ffd5b505050506040513d601f19601f82011682018060405250810190610ab39190612856565b1015610af4576040517f08c379a0000000000000000000000000000000000000000000000000000000008152600401610aeb906128cb565b60405180910390fd5b73521cdb596febcade11c70899569338f22f631d5573ffffffffffffffffffffffffffffffffffffffff1663a9059cbb610b2c61102a565b836040518363ffffffff1660e01b8152600401610b4a9291906128e9565b6020604051808303815f875af1158015610b66573d5f803e3d5ffd5b505050506040513d601f19601f82011682018060405250810190610b8a919061293a565b610bc9576040517f08c379a0000000000000000000000000000000000000000000000000000000008152600401610bc0906129af565b60405180910390fd5b50565b5f73521cdb596febcade11c70899569338f22f631d5573ffffffffffffffffffffffffffffffffffffffff166370a08231306040518263ffffffff1660e01b8152600401610c1a91906122b3565b602060405180830381865afa158015610c35573d5f803e3d5ffd5b505050506040513d601f19601f82011682018060405250810190610c599190612856565b905090565b606060018210158015610c72575060058211155b610cb1576040517f08c379a0000000000000000000000000000000000000000000000000000000008152600401610ca8906127ca565b60405180910390fd5b60215f8381526020019081526020015f20805480602002602001604051908101604052809291908181526020018280548015610d3f57602002820191905f5260205f20905b815f9054906101000a900473ffffffffffffffffffffffffffffffffffffffff1673ffffffffffffffffffffffffffffffffffffffff1681526020019060010190808311610cf6575b50505050509050919050565b5f60225f8373ffffffffffffffffffffffffffffffffffffffff1673ffffffffffffffffffffffffffffffffffffffff1681526020019081526020015f20805490509050919050565b5f60018210158015610da7575060058211155b610de6576040517f08c379a0000000000000000000000000000000000000000000000000000000008152600401610ddd906127ca565b60405180910390fd5b60215f8381526020019081526020015f20805490509050919050565b610e0a611c5d565b610e135f611cdb565b565b5f805f60205f8681526020019081526020015f205f8573ffffffffffffffffffffffffffffffffffffffff1673ffffffffffffffffffffffffffffffffffffffff1681526020019081526020015f205f9054906101000a900460ff16610e83575f805f925092509250611023565b5f60225f8673ffffffffffffffffffffffffffffffffffffffff1673ffffffffffffffffffffffffffffffffffffffff1681526020019081526020015f20805480602002602001604051908101604052809291908181526020015f905b82821015610f82578382905f5260205f2090600402016040518060800160405290815f8201548152602001600182015f9054906101000a900473ffffffffffffffffffffffffffffffffffffffff1673ffffffffffffffffffffffffffffffffffffffff1673ffffffffffffffffffffffffffffffffffffffff1681526020016002820154815260200160038201548152505081526020019060010190610ee0565b5050505090505f5b81518110156110175786828281518110610fa757610fa6612682565b5b60200260200101515f015103611004576001828281518110610fcc57610fcb612682565b5b602002602001015160400151838381518110610feb57610fea612682565b5b6020026020010151606001519450945094505050611023565b808061100f90612739565b915050610f8a565b505f805f935093509350505b9250925092565b5f805f9054906101000a900473ffffffffffffffffffffffffffffffffffffffff16905090565b611059611c5d565b5f73ffffffffffffffffffffffffffffffffffffffff168273ffffffffffffffffffffffffffffffffffffffff16036110c7576040517f08c379a00000000000000000000000000000000000000000000000000000000081526004016110be90612a17565b60405180910390fd5b73521cdb596febcade11c70899569338f22f631d5573ffffffffffffffffffffffffffffffffffffffff168273ffffffffffffffffffffffffffffffffffffffff1603611149576040517f08c379a000000000000000000000000000000000000000000000000000000000815260040161114090612aa5565b60405180910390fd5b5f8290508073ffffffffffffffffffffffffffffffffffffffff1663a9059cbb61117161102a565b846040518363ffffffff1660e01b815260040161118f9291906128e9565b6020604051808303815f875af11580156111ab573d5f803e3d5ffd5b505050506040513d601f19601f820116820180604052508101906111cf919061293a565b61120e576040517f08c379a0000000000000000000000000000000000000000000000000000000008152600401611205906129af565b60405180910390fd5b505050565b60028160058110611222575f80fd5b600602015f91509050805f01549080600101805461123f906126dc565b80601f016020809104026020016040519081016040528092919081815260200182805461126b906126dc565b80156112b65780601f1061128d576101008083540402835291602001916112b6565b820191905f5260205f20905b81548152906001019060200180831161129957829003601f168201915b5050505050908060020180546112cb906126dc565b80601f01602080910402602001604051908101604052809291908181526020018280546112f7906126dc565b80156113425780601f1061131957610100808354040283529160200191611342565b820191905f5260205f20905b81548152906001019060200180831161132557829003601f168201915b505050505090806003015490806004015f9054906101000a900460ff16908060050154905086565b606060225f8373ffffffffffffffffffffffffffffffffffffffff1673ffffffffffffffffffffffffffffffffffffffff1681526020019081526020015f20805480602002602001604051908101604052809291908181526020015f905b8282101561146a578382905f5260205f2090600402016040518060800160405290815f8201548152602001600182015f9054906101000a900473ffffffffffffffffffffffffffffffffffffffff1673ffffffffffffffffffffffffffffffffffffffff1673ffffffffffffffffffffffffffffffffffffffff16815260200160028201548152602001600382015481525050815260200190600101906113c8565b505050509050919050565b73521cdb596febcade11c70899569338f22f631d5581565b611495611d9c565b600181101580156114a7575060058111155b6114e6576040517f08c379a00000000000000000000000000000000000000000000000000000000081526004016114dd906127ca565b60405180910390fd5b5f6001826114f491906127e8565b90505f6002826005811061150b5761150a612682565b5b600602019050806004015f9054906101000a900460ff16611561576040517f08c379a000000000000000000000000000000000000000000000000000000000815260040161155890612b0d565b60405180910390fd5b60205f8481526020019081526020015f205f3373ffffffffffffffffffffffffffffffffffffffff1673ffffffffffffffffffffffffffffffffffffffff1681526020019081526020015f205f9054906101000a900460ff16156115fa576040517f08c379a00000000000000000000000000000000000000000000000000000000081526004016115f190612b75565b60405180910390fd5b5f816003015490508073521cdb596febcade11c70899569338f22f631d5573ffffffffffffffffffffffffffffffffffffffff166370a08231336040518263ffffffff1660e01b815260040161165091906122b3565b602060405180830381865afa15801561166b573d5f803e3d5ffd5b505050506040513d601f19601f8201168201806040525081019061168f9190612856565b10156116d0576040517f08c379a00000000000000000000000000000000000000000000000000000000081526004016116c790612bdd565b60405180910390fd5b8073521cdb596febcade11c70899569338f22f631d5573ffffffffffffffffffffffffffffffffffffffff1663dd62ed3e33306040518363ffffffff1660e01b815260040161172092919061281b565b602060405180830381865afa15801561173b573d5f803e3d5ffd5b505050506040513d601f19601f8201168201806040525081019061175f9190612856565b10156117a0576040517f08c379a000000000000000000000000000000000000000000000000000000000815260040161179790612c6b565b60405180910390fd5b73521cdb596febcade11c70899569338f22f631d5573ffffffffffffffffffffffffffffffffffffffff166323b872dd3330846040518463ffffffff1660e01b81526004016117f193929190612c89565b6020604051808303815f875af115801561180d573d5f803e3d5ffd5b505050506040513d601f19601f82011682018060405250810190611831919061293a565b611870576040517f08c379a0000000000000000000000000000000000000000000000000000000008152600401611867906129af565b60405180910390fd5b600160205f8681526020019081526020015f205f3373ffffffffffffffffffffffffffffffffffffffff1673ffffffffffffffffffffffffffffffffffffffff1681526020019081526020015f205f6101000a81548160ff02191690831515021790555060215f8581526020019081526020015f2033908060018154018082558091505060019003905f5260205f20015f9091909190916101000a81548173ffffffffffffffffffffffffffffffffffffffff021916908373ffffffffffffffffffffffffffffffffffffffff160217905550816005015f81548092919061195790612739565b919050555060225f3373ffffffffffffffffffffffffffffffffffffffff1673ffffffffffffffffffffffffffffffffffffffff1681526020019081526020015f2060405180608001604052808681526020013373ffffffffffffffffffffffffffffffffffffffff16815260200142815260200183815250908060018154018082558091505060019003905f5260205f2090600402015f909190919091505f820151815f01556020820151816001015f6101000a81548173ffffffffffffffffffffffffffffffffffffffff021916908373ffffffffffffffffffffffffffffffffffffffff160217905550604082015181600201556060820151816003015550503373ffffffffffffffffffffffffffffffffffffffff16847ff60c4bc755920ce357f8797c815c26aa589a56bea35c8fe0be2bf8ad413606da8342604051611aa3929190612cbe565b60405180910390a3505050611ab6611deb565b50565b60208052815f5260405f20602052805f5260405f205f915091509054906101000a900460ff1681565b6022602052815f5260405f208181548110611afb575f80fd5b905f5260205f2090600402015f9150915050805f015490806001015f9054906101000a900473ffffffffffffffffffffffffffffffffffffffff16908060020154908060030154905084565b611b4f611c5d565b5f73ffffffffffffffffffffffffffffffffffffffff168173ffffffffffffffffffffffffffffffffffffffff1603611bbd576040517f08c379a0000000000000000000000000000000000000000000000000000000008152600401611bb490612d55565b60405180910390fd5b611bc681611cdb565b50565b5f73521cdb596febcade11c70899569338f22f631d5573ffffffffffffffffffffffffffffffffffffffff166370a08231836040518263ffffffff1660e01b8152600401611c1791906122b3565b602060405180830381865afa158015611c32573d5f803e3d5ffd5b505050506040513d601f19601f82011682018060405250810190611c569190612856565b9050919050565b611c65611df4565b73ffffffffffffffffffffffffffffffffffffffff16611c8361102a565b73ffffffffffffffffffffffffffffffffffffffff1614611cd9576040517f08c379a0000000000000000000000000000000000000000000000000000000008152600401611cd090612dbd565b60405180910390fd5b565b5f805f9054906101000a900473ffffffffffffffffffffffffffffffffffffffff169050815f806101000a81548173ffffffffffffffffffffffffffffffffffffffff021916908373ffffffffffffffffffffffffffffffffffffffff1602179055508173ffffffffffffffffffffffffffffffffffffffff168173ffffffffffffffffffffffffffffffffffffffff167f8be0079c531659141344cd1fd0a4f28419497f9722a3daafe3b4186f6b6457e060405160405180910390a35050565b600260015403611de1576040517f08c379a0000000000000000000000000000000000000000000000000000000008152600401611dd890612e25565b60405180910390fd5b6002600181905550565b60018081905550565b5f33905090565b6040518060c001604052805f815260200160608152602001606081526020015f81526020015f151581526020015f81525090565b5f80fd5b5f819050919050565b611e4581611e33565b8114611e4f575f80fd5b50565b5f81359050611e6081611e3c565b92915050565b5f73ffffffffffffffffffffffffffffffffffffffff82169050919050565b5f611e8f82611e66565b9050919050565b611e9f81611e85565b8114611ea9575f80fd5b50565b5f81359050611eba81611e96565b92915050565b5f8060408385031215611ed657611ed5611e2f565b5b5f611ee385828601611e52565b9250506020611ef485828601611eac565b9150509250929050565b5f8115159050919050565b611f1281611efe565b82525050565b5f602082019050611f2b5f830184611f09565b92915050565b5f81519050919050565b5f82825260208201905092915050565b5f819050602082019050919050565b611f6381611e33565b82525050565b5f81519050919050565b5f82825260208201905092915050565b5f5b83811015611fa0578082015181840152602081019050611f85565b5f8484015250505050565b5f601f19601f8301169050919050565b5f611fc582611f69565b611fcf8185611f73565b9350611fdf818560208601611f83565b611fe881611fab565b840191505092915050565b611ffc81611efe565b82525050565b5f60c083015f8301516120175f860182611f5a565b506020830151848203602086015261202f8282611fbb565b915050604083015184820360408601526120498282611fbb565b915050606083015161205e6060860182611f5a565b5060808301516120716080860182611ff3565b5060a083015161208460a0860182611f5a565b508091505092915050565b5f61209a8383612002565b905092915050565b5f602082019050919050565b5f6120b882611f31565b6120c28185611f3b565b9350836020820285016120d485611f4b565b805f5b8581101561210f57848403895281516120f0858261208f565b94506120fb836120a2565b925060208a019950506001810190506120d7565b50829750879550505050505092915050565b5f6020820190508181035f83015261213981846120ae565b905092915050565b5f6020828403121561215657612155611e2f565b5b5f61216384828501611e52565b91505092915050565b5f82825260208201905092915050565b5f61218682611f69565b612190818561216c565b93506121a0818560208601611f83565b6121a981611fab565b840191505092915050565b6121bd81611e33565b82525050565b5f60a0820190508181035f8301526121db818861217c565b905081810360208301526121ef818761217c565b90506121fe60408301866121b4565b61220b6060830185611f09565b61221860808301846121b4565b9695505050505050565b5f6020828403121561223757612236611e2f565b5b5f61224484828501611eac565b91505092915050565b5f6020820190506122605f8301846121b4565b92915050565b5f806040838503121561227c5761227b611e2f565b5b5f61228985828601611e52565b925050602061229a85828601611e52565b9150509250929050565b6122ad81611e85565b82525050565b5f6020820190506122c65f8301846122a4565b92915050565b5f81519050919050565b5f82825260208201905092915050565b5f819050602082019050919050565b6122fe81611e85565b82525050565b5f61230f83836122f5565b60208301905092915050565b5f602082019050919050565b5f612331826122cc565b61233b81856122d6565b9350612346836122e6565b805f5b8381101561237657815161235d8882612304565b97506123688361231b565b925050600181019050612349565b5085935050505092915050565b5f6020820190508181035f83015261239b8184612327565b905092915050565b5f6060820190506123b65f830186611f09565b6123c360208301856121b4565b6123d060408301846121b4565b949350505050565b5f80604083850312156123ee576123ed611e2f565b5b5f6123fb85828601611eac565b925050602061240c85828601611e52565b9150509250929050565b5f60c0820190506124295f8301896121b4565b818103602083015261243b818861217c565b9050818103604083015261244f818761217c565b905061245e60608301866121b4565b61246b6080830185611f09565b61247860a08301846121b4565b979650505050505050565b5f81519050919050565b5f82825260208201905092915050565b5f819050602082019050919050565b608082015f8201516124c05f850182611f5a565b5060208201516124d360208501826122f5565b5060408201516124e66040850182611f5a565b5060608201516124f96060850182611f5a565b50505050565b5f61250a83836124ac565b60808301905092915050565b5f602082019050919050565b5f61252c82612483565b612536818561248d565b93506125418361249d565b805f5b8381101561257157815161255888826124ff565b975061256383612516565b925050600181019050612544565b5085935050505092915050565b5f6020820190508181035f8301526125968184612522565b905092915050565b5f819050919050565b5f6125c16125bc6125b784611e66565b61259e565b611e66565b9050919050565b5f6125d2826125a7565b9050919050565b5f6125e3826125c8565b9050919050565b6125f3816125d9565b82525050565b5f60208201905061260c5f8301846125ea565b92915050565b5f6080820190506126255f8301876121b4565b61263260208301866122a4565b61263f60408301856121b4565b61264c60608301846121b4565b95945050505050565b7f4e487b71000000000000000000000000000000000000000000000000000000005f52604160045260245ffd5b7f4e487b71000000000000000000000000000000000000000000000000000000005f52603260045260245ffd5b7f4e487b71000000000000000000000000000000000000000000000000000000005f52602260045260245ffd5b5f60028204905060018216806126f357607f821691505b602082108103612706576127056126af565b5b50919050565b7f4e487b71000000000000000000000000000000000000000000000000000000005f52601160045260245ffd5b5f61274382611e33565b91507fffffffffffffffffffffffffffffffffffffffffffffffffffffffffffffffff82036127755761277461270c565b5b600182019050919050565b7f496e76616c696420636f757273652049440000000000000000000000000000005f82015250565b5f6127b460118361216c565b91506127bf82612780565b602082019050919050565b5f6020820190508181035f8301526127e1816127a8565b9050919050565b5f6127f282611e33565b91506127fd83611e33565b92508282039050818111156128155761281461270c565b5b92915050565b5f60408201905061282e5f8301856122a4565b61283b60208301846122a4565b9392505050565b5f8151905061285081611e3c565b92915050565b5f6020828403121561286b5761286a611e2f565b5b5f61287884828501612842565b91505092915050565b7f496e73756666696369656e7420636f6e74726163742062616c616e63650000005f82015250565b5f6128b5601d8361216c565b91506128c082612881565b602082019050919050565b5f6020820190508181035f8301526128e2816128a9565b9050919050565b5f6040820190506128fc5f8301856122a4565b61290960208301846121b4565b9392505050565b61291981611efe565b8114612923575f80fd5b50565b5f8151905061293481612910565b92915050565b5f6020828403121561294f5761294e611e2f565b5b5f61295c84828501612926565b91505092915050565b7f546f6b656e207472616e73666572206661696c656400000000000000000000005f82015250565b5f61299960158361216c565b91506129a482612965565b602082019050919050565b5f6020820190508181035f8301526129c68161298d565b9050919050565b7f496e76616c696420746f6b656e206164647265737300000000000000000000005f82015250565b5f612a0160158361216c565b9150612a0c826129cd565b602082019050919050565b5f6020820190508181035f830152612a2e816129f5565b9050919050565b7f557365207769746864726177546f6b656e7320666f72206d61696e20746f6b655f8201527f6e00000000000000000000000000000000000000000000000000000000000000602082015250565b5f612a8f60218361216c565b9150612a9a82612a35565b604082019050919050565b5f6020820190508181035f830152612abc81612a83565b9050919050565b7f436f75727365206973206e6f74206163746976650000000000000000000000005f82015250565b5f612af760148361216c565b9150612b0282612ac3565b602082019050919050565b5f6020820190508181035f830152612b2481612aeb565b9050919050565b7f416c726561647920707572636861736564207468697320636f757273650000005f82015250565b5f612b5f601d8361216c565b9150612b6a82612b2b565b602082019050919050565b5f6020820190508181035f830152612b8c81612b53565b9050919050565b7f496e73756666696369656e7420746f6b656e2062616c616e63650000000000005f82015250565b5f612bc7601a8361216c565b9150612bd282612b93565b602082019050919050565b5f6020820190508181035f830152612bf481612bbb565b9050919050565b7f506c6561736520617070726f766520746f6b656e732066697273742e2043616c5f8201527f6c20617070726f76652829206f6e20746f6b656e20636f6e7472616374000000602082015250565b5f612c55603d8361216c565b9150612c6082612bfb565b604082019050919050565b5f6020820190508181035f830152612c8281612c49565b9050919050565b5f606082019050612c9c5f8301866122a4565b612ca960208301856122a4565b612cb660408301846121b4565b949350505050565b5f604082019050612cd15f8301856121b4565b612cde60208301846121b4565b9392505050565b7f4f776e61626c653a206e6577206f776e657220697320746865207a65726f20615f8201527f6464726573730000000000000000000000000000000000000000000000000000602082015250565b5f612d3f60268361216c565b9150612d4a82612ce5565b604082019050919050565b5f6020820190508181035f830152612d6c81612d33565b9050919050565b7f4f776e61626c653a2063616c6c6572206973206e6f7420746865206f776e65725f82015250565b5f612da760208361216c565b9150612db282612d73565b602082019050919050565b5f6020820190508181035f830152612dd481612d9b565b9050919050565b7f5265656e7472616e637947756172643a207265656e7472616e742063616c6c005f82015250565b5f612e0f601f8361216c565b9150612e1a82612ddb565b602082019050919050565b5f6020820190508181035f830152612e3c81612e03565b905091905056fea26469706673582212207c716c1dfa6f0b6a142050f44e86177a725b4cb1072f2b6c77c16b3b21c457e664736f6c63430008140033",
  "immutableReferences": {},
  "source": "// SPDX-License-Identifier: GPL-3.0\npragma solidity >=0.8.20 <0.9.0;\n\nimport \"@openzeppelin/contracts/access/Ownable.sol\";\nimport \"@openzeppelin/contracts/security/ReentrancyGuard.sol\";\n\n// \ninterface IMetaCoin {\n    function transfer(address to, uint256 amount) external returns (bool);\n    function transferFrom(\n        address from,\n        address to,\n        uint256 amount\n    ) external returns (bool);\n    function balanceOf(address account) external view returns (uint256);\n    function allowance(\n        address owner,\n        address spender\n    ) external view returns (uint256);\n}\n\ncontract CourseMarket is Ownable, ReentrancyGuard {\n    // \n    IMetaCoin public constant metaCoinToken =\n        IMetaCoin(0x521CDB596fEbCadE11c70899569338f22f631D55);\n\n    // \n    struct Course {\n        uint256 courseId;\n        string title;\n        string description;\n        uint256 price; //  syf \n        bool isActive;\n        uint256 totalPurchases;\n    }\n\n    // \n    struct Purchase {\n        uint256 courseId;\n        address student;\n        uint256 purchaseTime;\n        uint256 paidAmount;\n    }\n\n    // \n    Course[5] public courses;\n\n    // \n    mapping(uint256 => mapping(address => bool)) public hasPurchased;\n\n    // \n    mapping(uint256 => address[]) public coursePurchasers;\n\n    // \n    mapping(address => Purchase[]) public studentPurchases;\n\n    // \n    event CoursePurchased(\n        uint256 indexed courseId,\n        address indexed student,\n        uint256 price,\n        uint256 timestamp\n    );\n\n    constructor() {\n        // 5\n        courses[0] = Course({\n            courseId: 1,\n            title: \"course 1\",\n            description: \"course 1 desc\",\n            price: 5,\n            isActive: true,\n            totalPurchases: 0\n        });\n\n        courses[1] = Course({\n            courseId: 2,\n            title: \"course 2\",\n            description: \"course 2 desc\",\n            price: 5,\n            isActive: true,\n            totalPurchases: 0\n        });\n\n        courses[2] = Course({\n            courseId: 3,\n            title: \"course 3\",\n            description: \"course 3 desc\",\n            price: 5,\n            isActive: true,\n            totalPurchases: 0\n        });\n\n        courses[3] = Course({\n            courseId: 4,\n            title: \"course 4\",\n            description: \"course 4 desc\",\n            price: 5,\n            isActive: true,\n            totalPurchases: 0\n        });\n\n        courses[4] = Course({\n            courseId: 5,\n            title: \"course 5\",\n            description: \"course 5 desc\",\n            price: 5,\n            isActive: true,\n            totalPurchases: 0\n        });\n    }\n\n    // approve\n    function purchaseCourse(uint256 _courseId) external nonReentrant {\n        require(_courseId >= 1 && _courseId <= 5, \"Invalid course ID\");\n        uint256 courseIndex = _courseId - 1; // 0\n\n        Course storage course = courses[courseIndex];\n        require(course.isActive, \"Course is not active\");\n        require(\n            !hasPurchased[_courseId][msg.sender],\n            \"Already purchased this course\"\n        );\n\n        uint256 coursePrice = course.price;\n        require(\n            metaCoinToken.balanceOf(msg.sender) >= coursePrice,\n            \"Insufficient token balance\"\n        );\n        require(\n            metaCoinToken.allowance(msg.sender, address(this)) >= coursePrice,\n            \"Please approve tokens first. Call approve() on token contract\"\n        );\n\n        // \n        require(\n            metaCoinToken.transferFrom(msg.sender, address(this), coursePrice),\n            \"Token transfer failed\"\n        );\n\n        // \n        hasPurchased[_courseId][msg.sender] = true;\n        coursePurchasers[_courseId].push(msg.sender);\n        course.totalPurchases++;\n\n        // \n        studentPurchases[msg.sender].push(\n            Purchase({\n                courseId: _courseId,\n                student: msg.sender,\n                purchaseTime: block.timestamp,\n                paidAmount: coursePrice\n            })\n        );\n\n        emit CoursePurchased(\n            _courseId,\n            msg.sender,\n            coursePrice,\n            block.timestamp\n        );\n    }\n\n    // \n    function withdrawTokens(uint256 _amount) external onlyOwner {\n        require(\n            metaCoinToken.balanceOf(address(this)) >= _amount,\n            \"Insufficient contract balance\"\n        );\n        require(\n            metaCoinToken.transfer(owner(), _amount),\n            \"Token transfer failed\"\n        );\n    }\n\n    // \n\n    // \n    function getAllCourses() external view returns (Course[] memory) {\n        Course[] memory allCourses = new Course[](5);\n\n        for (uint256 i = 0; i < 5; i++) {\n            allCourses[i] = courses[i];\n        }\n\n        return allCourses;\n    }\n\n    // \n    function getCourse(\n        uint256 _courseId\n    )\n        external\n        view\n        returns (\n            string memory title,\n            string memory description,\n            uint256 price,\n            bool isActive,\n            uint256 totalPurchases\n        )\n    {\n        require(_courseId >= 1 && _courseId <= 5, \"Invalid course ID\");\n        uint256 courseIndex = _courseId - 1;\n        Course memory course = courses[courseIndex];\n\n        return (\n            course.title,\n            course.description,\n            course.price,\n            course.isActive,\n            course.totalPurchases\n        );\n    }\n\n    // \n    function getCoursePurchasers(\n        uint256 _courseId\n    ) external view returns (address[] memory) {\n        require(_courseId >= 1 && _courseId <= 5, \"Invalid course ID\");\n        return coursePurchasers[_courseId];\n    }\n\n    // \n    function getCoursePurchasersCount(\n        uint256 _courseId\n    ) external view returns (uint256) {\n        require(_courseId >= 1 && _courseId <= 5, \"Invalid course ID\");\n        return coursePurchasers[_courseId].length;\n    }\n\n    // \n    function hasUserPurchased(\n        uint256 _courseId,\n        address _user\n    ) external view returns (bool) {\n        return hasPurchased[_courseId][_user];\n    }\n\n    // \n    function getStudentPurchases(\n        address _student\n    ) external view returns (Purchase[] memory) {\n        return studentPurchases[_student];\n    }\n\n    // \n    function getStudentPurchaseCount(\n        address _student\n    ) external view returns (uint256) {\n        return studentPurchases[_student].length;\n    }\n\n    // \n    function checkPurchaseStatus(\n        uint256 _courseId,\n        address _student\n    )\n        external\n        view\n        returns (bool purchased, uint256 purchaseTime, uint256 paidAmount)\n    {\n        if (!hasPurchased[_courseId][_student]) {\n            return (false, 0, 0);\n        }\n\n        Purchase[] memory purchases = studentPurchases[_student];\n        for (uint256 i = 0; i < purchases.length; i++) {\n            if (purchases[i].courseId == _courseId) {\n                return (\n                    true,\n                    purchases[i].purchaseTime,\n                    purchases[i].paidAmount\n                );\n            }\n        }\n\n        return (false, 0, 0);\n    }\n\n    // \n    function getContractTokenBalance() external view returns (uint256) {\n        return metaCoinToken.balanceOf(address(this));\n    }\n\n    // \n    function getUserTokenBalance(\n        address _user\n    ) external view returns (uint256) {\n        return metaCoinToken.balanceOf(_user);\n    }\n\n    // \n    function getUserAllowance(address _user) external view returns (uint256) {\n        return metaCoinToken.allowance(_user, address(this));\n    }\n\n    // \n    function emergencyWithdrawTokens(\n        address _token,\n        uint256 _amount\n    ) external onlyOwner {\n        require(_token != address(0), \"Invalid token address\");\n        require(\n            _token != address(metaCoinToken),\n            \"Use withdrawTokens for main token\"\n        );\n        IMetaCoin token = IMetaCoin(_token);\n        require(token.transfer(owner(), _amount), \"Token transfer failed\");\n    }\n}\n",
  "sourcePath": "/Users/syefeng/Desktop/yd-study/coin-syf/contracts/CourseMarket.sol",
  "compiler": {
    "name": "solc",
    "version": "0.8.20+commit.a1b79de6.Emscripten.clang"
  },
  "schemaVersion": "3.4.16",
  "updatedAt": "2025-06-03T02:41:16.713Z",
  "devdoc": {
    "kind": "dev",
    "methods": {
      "owner()": {
        "details": "Returns the address of the current owner."
      },
      "renounceOwnership()": {
        "details": "Leaves the contract without owner. It will not be possible to call `onlyOwner` functions. Can only be called by the current owner. NOTE: Renouncing ownership will leave the contract without an owner, thereby disabling any functionality that is only available to the owner."
      },
      "transferOwnership(address)": {
        "details": "Transfers ownership of the contract to a new account (`newOwner`). Can only be called by the current owner."
      }
    },
    "version": 1
  },
  "userdoc": {
    "kind": "user",
    "methods": {},
    "version": 1
  }
}