{
  "contractName": "MetaCoin",
  "abi": [
    {
      "inputs": [],
      "stateMutability": "nonpayable",
      "type": "constructor"
    },
    {
      "anonymous": false,
      "inputs": [
        {
          "indexed": true,
          "internalType": "address",
          "name": "owner",
          "type": "address"
        },
        {
          "indexed": true,
          "internalType": "address",
          "name": "spender",
          "type": "address"
        },
        {
          "indexed": false,
          "internalType": "uint256",
          "name": "value",
          "type": "uint256"
        }
      ],
      "name": "Approval",
      "type": "event"
    },
    {
      "anonymous": false,
      "inputs": [
        {
          "indexed": true,
          "internalType": "address",
          "name": "previousOwner",
          "type": "address"
        },
        {
          "indexed": true,
          "internalType": "address",
          "name": "newOwner",
          "type": "address"
        }
      ],
      "name": "OwnershipTransferred",
      "type": "event"
    },
    {
      "anonymous": false,
      "inputs": [
        {
          "indexed": false,
          "internalType": "address",
          "name": "buyer",
          "type": "address"
        },
        {
          "indexed": false,
          "internalType": "uint256",
          "name": "ethAmount",
          "type": "uint256"
        },
        {
          "indexed": false,
          "internalType": "uint256",
          "name": "tokenAmount",
          "type": "uint256"
        }
      ],
      "name": "TokensPurchased",
      "type": "event"
    },
    {
      "anonymous": false,
      "inputs": [
        {
          "indexed": false,
          "internalType": "address",
          "name": "seller",
          "type": "address"
        },
        {
          "indexed": false,
          "internalType": "uint256",
          "name": "tokenAmount",
          "type": "uint256"
        },
        {
          "indexed": false,
          "internalType": "uint256",
          "name": "ethAmount",
          "type": "uint256"
        }
      ],
      "name": "TokensSold",
      "type": "event"
    },
    {
      "anonymous": false,
      "inputs": [
        {
          "indexed": false,
          "internalType": "address",
          "name": "to",
          "type": "address"
        },
        {
          "indexed": false,
          "internalType": "uint256",
          "name": "amount",
          "type": "uint256"
        }
      ],
      "name": "TokensWithdrawn",
      "type": "event"
    },
    {
      "anonymous": false,
      "inputs": [
        {
          "indexed": true,
          "internalType": "address",
          "name": "from",
          "type": "address"
        },
        {
          "indexed": true,
          "internalType": "address",
          "name": "to",
          "type": "address"
        },
        {
          "indexed": false,
          "internalType": "uint256",
          "name": "value",
          "type": "uint256"
        }
      ],
      "name": "Transfer",
      "type": "event"
    },
    {
      "inputs": [],
      "name": "INITIAL_SUPPLY",
      "outputs": [
        {
          "internalType": "uint256",
          "name": "",
          "type": "uint256"
        }
      ],
      "stateMutability": "view",
      "type": "function"
    },
    {
      "inputs": [],
      "name": "NAME",
      "outputs": [
        {
          "internalType": "string",
          "name": "",
          "type": "string"
        }
      ],
      "stateMutability": "view",
      "type": "function"
    },
    {
      "inputs": [],
      "name": "SYMBOL",
      "outputs": [
        {
          "internalType": "string",
          "name": "",
          "type": "string"
        }
      ],
      "stateMutability": "view",
      "type": "function"
    },
    {
      "inputs": [
        {
          "internalType": "address",
          "name": "owner",
          "type": "address"
        },
        {
          "internalType": "address",
          "name": "spender",
          "type": "address"
        }
      ],
      "name": "allowance",
      "outputs": [
        {
          "internalType": "uint256",
          "name": "",
          "type": "uint256"
        }
      ],
      "stateMutability": "view",
      "type": "function"
    },
    {
      "inputs": [
        {
          "internalType": "address",
          "name": "spender",
          "type": "address"
        },
        {
          "internalType": "uint256",
          "name": "amount",
          "type": "uint256"
        }
      ],
      "name": "approve",
      "outputs": [
        {
          "internalType": "bool",
          "name": "",
          "type": "bool"
        }
      ],
      "stateMutability": "nonpayable",
      "type": "function"
    },
    {
      "inputs": [
        {
          "internalType": "address",
          "name": "account",
          "type": "address"
        }
      ],
      "name": "balanceOf",
      "outputs": [
        {
          "internalType": "uint256",
          "name": "",
          "type": "uint256"
        }
      ],
      "stateMutability": "view",
      "type": "function"
    },
    {
      "inputs": [
        {
          "internalType": "address",
          "name": "spender",
          "type": "address"
        },
        {
          "internalType": "uint256",
          "name": "subtractedValue",
          "type": "uint256"
        }
      ],
      "name": "decreaseAllowance",
      "outputs": [
        {
          "internalType": "bool",
          "name": "",
          "type": "bool"
        }
      ],
      "stateMutability": "nonpayable",
      "type": "function"
    },
    {
      "inputs": [
        {
          "internalType": "address",
          "name": "spender",
          "type": "address"
        },
        {
          "internalType": "uint256",
          "name": "addedValue",
          "type": "uint256"
        }
      ],
      "name": "increaseAllowance",
      "outputs": [
        {
          "internalType": "bool",
          "name": "",
          "type": "bool"
        }
      ],
      "stateMutability": "nonpayable",
      "type": "function"
    },
    {
      "inputs": [],
      "name": "name",
      "outputs": [
        {
          "internalType": "string",
          "name": "",
          "type": "string"
        }
      ],
      "stateMutability": "view",
      "type": "function"
    },
    {
      "inputs": [],
      "name": "owner",
      "outputs": [
        {
          "internalType": "address",
          "name": "",
          "type": "address"
        }
      ],
      "stateMutability": "view",
      "type": "function"
    },
    {
      "inputs": [],
      "name": "renounceOwnership",
      "outputs": [],
      "stateMutability": "nonpayable",
      "type": "function"
    },
    {
      "inputs": [],
      "name": "symbol",
      "outputs": [
        {
          "internalType": "string",
          "name": "",
          "type": "string"
        }
      ],
      "stateMutability": "view",
      "type": "function"
    },
    {
      "inputs": [],
      "name": "tokenPrice",
      "outputs": [
        {
          "internalType": "uint256",
          "name": "",
          "type": "uint256"
        }
      ],
      "stateMutability": "view",
      "type": "function"
    },
    {
      "inputs": [],
      "name": "totalSupply",
      "outputs": [
        {
          "internalType": "uint256",
          "name": "",
          "type": "uint256"
        }
      ],
      "stateMutability": "view",
      "type": "function"
    },
    {
      "inputs": [
        {
          "internalType": "address",
          "name": "to",
          "type": "address"
        },
        {
          "internalType": "uint256",
          "name": "amount",
          "type": "uint256"
        }
      ],
      "name": "transfer",
      "outputs": [
        {
          "internalType": "bool",
          "name": "",
          "type": "bool"
        }
      ],
      "stateMutability": "nonpayable",
      "type": "function"
    },
    {
      "inputs": [
        {
          "internalType": "address",
          "name": "from",
          "type": "address"
        },
        {
          "internalType": "address",
          "name": "to",
          "type": "address"
        },
        {
          "internalType": "uint256",
          "name": "amount",
          "type": "uint256"
        }
      ],
      "name": "transferFrom",
      "outputs": [
        {
          "internalType": "bool",
          "name": "",
          "type": "bool"
        }
      ],
      "stateMutability": "nonpayable",
      "type": "function"
    },
    {
      "inputs": [
        {
          "internalType": "address",
          "name": "newOwner",
          "type": "address"
        }
      ],
      "name": "transferOwnership",
      "outputs": [],
      "stateMutability": "nonpayable",
      "type": "function"
    },
    {
      "inputs": [],
      "name": "decimals",
      "outputs": [
        {
          "internalType": "uint8",
          "name": "",
          "type": "uint8"
        }
      ],
      "stateMutability": "view",
      "type": "function"
    },
    {
      "inputs": [],
      "name": "buyTokens",
      "outputs": [],
      "stateMutability": "payable",
      "type": "function"
    },
    {
      "inputs": [
        {
          "internalType": "uint256",
          "name": "tokenAmount",
          "type": "uint256"
        }
      ],
      "name": "sellTokens",
      "outputs": [],
      "stateMutability": "nonpayable",
      "type": "function"
    },
    {
      "inputs": [
        {
          "internalType": "uint256",
          "name": "_tokenPrice",
          "type": "uint256"
        }
      ],
      "name": "setTokenPrice",
      "outputs": [],
      "stateMutability": "nonpayable",
      "type": "function"
    },
    {
      "inputs": [],
      "name": "depositETH",
      "outputs": [],
      "stateMutability": "payable",
      "type": "function"
    },
    {
      "inputs": [
        {
          "internalType": "uint256",
          "name": "amount",
          "type": "uint256"
        }
      ],
      "name": "withdrawETH",
      "outputs": [],
      "stateMutability": "nonpayable",
      "type": "function"
    },
    {
      "inputs": [
        {
          "internalType": "address",
          "name": "to",
          "type": "address"
        },
        {
          "internalType": "uint256",
          "name": "amount",
          "type": "uint256"
        }
      ],
      "name": "withdrawTokens",
      "outputs": [],
      "stateMutability": "nonpayable",
      "type": "function"
    },
    {
      "inputs": [
        {
          "internalType": "address",
          "name": "to",
          "type": "address"
        }
      ],
      "name": "withdrawAllTokens",
      "outputs": [],
      "stateMutability": "nonpayable",
      "type": "function"
    },
    {
      "inputs": [],
      "name": "getContractETHBalance",
      "outputs": [
        {
          "internalType": "uint256",
          "name": "",
          "type": "uint256"
        }
      ],
      "stateMutability": "view",
      "type": "function"
    },
    {
      "inputs": [
        {
          "internalType": "uint256",
          "name": "tokenAmount",
          "type": "uint256"
        }
      ],
      "name": "calculateETHForTokens",
      "outputs": [
        {
          "internalType": "uint256",
          "name": "",
          "type": "uint256"
        }
      ],
      "stateMutability": "view",
      "type": "function"
    },
    {
      "inputs": [
        {
          "internalType": "uint256",
          "name": "ethAmount",
          "type": "uint256"
        }
      ],
      "name": "calculateTokensForETH",
      "outputs": [
        {
          "internalType": "uint256",
          "name": "",
          "type": "uint256"
        }
      ],
      "stateMutability": "view",
      "type": "function"
    }
  ],
  "bytecode": "0x608060405266038d7ea4c680006006553480156200001b575f80fd5b506040518060400160405280600d81526020017f7379664552433230546f6b656e000000000000000000000000000000000000008152506040518060400160405280600381526020017f7379660000000000000000000000000000000000000000000000000000000000815250816003908162000099919062000585565b508060049081620000ab919062000585565b505050620000ce620000c2620000e860201b60201c565b620000ef60201b60201c565b620000e233612710620001b260201b60201c565b6200077a565b5f33905090565b5f60055f9054906101000a900473ffffffffffffffffffffffffffffffffffffffff1690508160055f6101000a81548173ffffffffffffffffffffffffffffffffffffffff021916908373ffffffffffffffffffffffffffffffffffffffff1602179055508173ffffffffffffffffffffffffffffffffffffffff168173ffffffffffffffffffffffffffffffffffffffff167f8be0079c531659141344cd1fd0a4f28419497f9722a3daafe3b4186f6b6457e060405160405180910390a35050565b5f73ffffffffffffffffffffffffffffffffffffffff168273ffffffffffffffffffffffffffffffffffffffff160362000223576040517f08c379a00000000000000000000000000000000000000000000000000000000081526004016200021a90620006c7565b60405180910390fd5b620002365f83836200031760201b60201c565b8060025f82825462000249919062000714565b92505081905550805f808473ffffffffffffffffffffffffffffffffffffffff1673ffffffffffffffffffffffffffffffffffffffff1681526020019081526020015f205f82825401925050819055508173ffffffffffffffffffffffffffffffffffffffff165f73ffffffffffffffffffffffffffffffffffffffff167fddf252ad1be2c89b69c2b068fc378daa952ba7f163c4a11628f55a4df523b3ef83604051620002f891906200075f565b60405180910390a3620003135f83836200031c60201b60201c565b5050565b505050565b505050565b5f81519050919050565b7f4e487b71000000000000000000000000000000000000000000000000000000005f52604160045260245ffd5b7f4e487b71000000000000000000000000000000000000000000000000000000005f52602260045260245ffd5b5f60028204905060018216806200039d57607f821691505b602082108103620003b357620003b262000358565b5b50919050565b5f819050815f5260205f209050919050565b5f6020601f8301049050919050565b5f82821b905092915050565b5f60088302620004177fffffffffffffffffffffffffffffffffffffffffffffffffffffffffffffffff82620003da565b620004238683620003da565b95508019841693508086168417925050509392505050565b5f819050919050565b5f819050919050565b5f6200046d6200046762000461846200043b565b62000444565b6200043b565b9050919050565b5f819050919050565b62000488836200044d565b620004a0620004978262000474565b848454620003e6565b825550505050565b5f90565b620004b6620004a8565b620004c38184846200047d565b505050565b5b81811015620004ea57620004de5f82620004ac565b600181019050620004c9565b5050565b601f82111562000539576200050381620003b9565b6200050e84620003cb565b810160208510156200051e578190505b620005366200052d85620003cb565b830182620004c8565b50505b505050565b5f82821c905092915050565b5f6200055b5f19846008026200053e565b1980831691505092915050565b5f6200057583836200054a565b9150826002028217905092915050565b620005908262000321565b67ffffffffffffffff811115620005ac57620005ab6200032b565b5b620005b8825462000385565b620005c5828285620004ee565b5f60209050601f831160018114620005fb575f8415620005e6578287015190505b620005f2858262000568565b86555062000661565b601f1984166200060b86620003b9565b5f5b8281101562000634578489015182556001820191506020850194506020810190506200060d565b8683101562000654578489015162000650601f8916826200054a565b8355505b6001600288020188555050505b505050505050565b5f82825260208201905092915050565b7f45524332303a206d696e7420746f20746865207a65726f2061646472657373005f82015250565b5f620006af601f8362000669565b9150620006bc8262000679565b602082019050919050565b5f6020820190508181035f830152620006e081620006a1565b9050919050565b7f4e487b71000000000000000000000000000000000000000000000000000000005f52601160045260245ffd5b5f62000720826200043b565b91506200072d836200043b565b9250828201905080821115620007485762000747620006e7565b5b92915050565b62000759816200043b565b82525050565b5f602082019050620007745f8301846200074e565b92915050565b61236780620007885f395ff3fe6080604052600436106101b6575f3560e01c80638c89a0ad116100eb578063a9059cbb11610089578063f14210a611610063578063f14210a614610610578063f2fde38b14610638578063f6326fb314610660578063f76f8d781461066a576101b6565b8063a9059cbb1461058e578063d0febe4c146105ca578063dd62ed3e146105d4576101b6565b8063a3f4df7e116100c5578063a3f4df7e146104c4578063a457c2d7146104ee578063a60007491461052a578063a878aee614610566576101b6565b80638c89a0ad146104465780638da5cb5b1461047057806395d89b411461049a576101b6565b8063395093511161015857806370a082311161013257806370a082311461038e578063715018a6146103ca5780637ff9b596146103e05780638715884d1461040a576101b6565b806339509351146103025780636a61e5fc1461033e5780636c11bcd314610366576101b6565b806318160ddd1161019457806318160ddd1461024857806323b872dd146102725780632ff2e9dc146102ae578063313ce567146102d8576101b6565b806306b091f9146101ba57806306fdde03146101e2578063095ea7b31461020c575b5f80fd5b3480156101c5575f80fd5b506101e060048036038101906101db91906116b9565b610694565b005b3480156101ed575f80fd5b506101f661079d565b6040516102039190611781565b60405180910390f35b348015610217575f80fd5b50610232600480360381019061022d91906116b9565b61082d565b60405161023f91906117bb565b60405180910390f35b348015610253575f80fd5b5061025c61084f565b60405161026991906117e3565b60405180910390f35b34801561027d575f80fd5b50610298600480360381019061029391906117fc565b610858565b6040516102a591906117bb565b60405180910390f35b3480156102b9575f80fd5b506102c2610886565b6040516102cf91906117e3565b60405180910390f35b3480156102e3575f80fd5b506102ec61088c565b6040516102f99190611867565b60405180910390f35b34801561030d575f80fd5b50610328600480360381019061032391906116b9565b610890565b60405161033591906117bb565b60405180910390f35b348015610349575f80fd5b50610364600480360381019061035f9190611880565b6108c6565b005b348015610371575f80fd5b5061038c60048036038101906103879190611880565b6108d8565b005b348015610399575f80fd5b506103b460048036038101906103af91906118ab565b610a4e565b6040516103c191906117e3565b60405180910390f35b3480156103d5575f80fd5b506103de610a93565b005b3480156103eb575f80fd5b506103f4610aa6565b60405161040191906117e3565b60405180910390f35b348015610415575f80fd5b50610430600480360381019061042b9190611880565b610aac565b60405161043d91906117e3565b60405180910390f35b348015610451575f80fd5b5061045a610ac2565b60405161046791906117e3565b60405180910390f35b34801561047b575f80fd5b50610484610ac9565b60405161049191906118e5565b60405180910390f35b3480156104a5575f80fd5b506104ae610af1565b6040516104bb9190611781565b60405180910390f35b3480156104cf575f80fd5b506104d8610b81565b6040516104e59190611781565b60405180910390f35b3480156104f9575f80fd5b50610514600480360381019061050f91906116b9565b610bba565b60405161052191906117bb565b60405180910390f35b348015610535575f80fd5b50610550600480360381019061054b9190611880565b610c2f565b60405161055d91906117e3565b60405180910390f35b348015610571575f80fd5b5061058c600480360381019061058791906118ab565b610c45565b005b348015610599575f80fd5b506105b460048036038101906105af91906116b9565b610ce3565b6040516105c191906117bb565b60405180910390f35b6105d2610d05565b005b3480156105df575f80fd5b506105fa60048036038101906105f591906118fe565b610e3c565b60405161060791906117e3565b60405180910390f35b34801561061b575f80fd5b5061063660048036038101906106319190611880565b610ebe565b005b348015610643575f80fd5b5061065e600480360381019061065991906118ab565b610f57565b005b610668610fd9565b005b348015610675575f80fd5b5061067e610fe3565b60405161068b9190611781565b60405180910390f35b61069c61101c565b5f73ffffffffffffffffffffffffffffffffffffffff168273ffffffffffffffffffffffffffffffffffffffff160361070a576040517f08c379a000000000000000000000000000000000000000000000000000000000815260040161070190611986565b60405180910390fd5b8061071430610a4e565b1015610755576040517f08c379a000000000000000000000000000000000000000000000000000000000815260040161074c906119ee565b60405180910390fd5b61076030838361109a565b7f6352c5382c4a4578e712449ca65e83cdb392d045dfcf1cad9615189db2da244b8282604051610791929190611a0c565b60405180910390a15050565b6060600380546107ac90611a60565b80601f01602080910402602001604051908101604052809291908181526020018280546107d890611a60565b80156108235780601f106107fa57610100808354040283529160200191610823565b820191905f5260205f20905b81548152906001019060200180831161080657829003601f168201915b5050505050905090565b5f80610837611306565b905061084481858561130d565b600191505092915050565b5f600254905090565b5f80610862611306565b905061086f8582856114d0565b61087a85858561109a565b60019150509392505050565b61271081565b5f90565b5f8061089a611306565b90506108bb8185856108ac8589610e3c565b6108b69190611abd565b61130d565b600191505092915050565b6108ce61101c565b8060068190555050565b5f811161091a576040517f08c379a000000000000000000000000000000000000000000000000000000000815260040161091190611b60565b60405180910390fd5b8061092433610a4e565b1015610965576040517f08c379a000000000000000000000000000000000000000000000000000000000815260040161095c90611bc8565b60405180910390fd5b5f600654826109749190611be6565b9050804710156109b9576040517f08c379a00000000000000000000000000000000000000000000000000000000081526004016109b090611c71565b60405180910390fd5b6109cb336109c5610ac9565b8461109a565b3373ffffffffffffffffffffffffffffffffffffffff166108fc8290811502906040515f60405180830381858888f19350505050158015610a0e573d5f803e3d5ffd5b507f2dcf9433d75db0d8b1c172641f85e319ffe4ad22e108a95d1847ceb906e5195d338383604051610a4293929190611c8f565b60405180910390a15050565b5f805f8373ffffffffffffffffffffffffffffffffffffffff1673ffffffffffffffffffffffffffffffffffffffff1681526020019081526020015f20549050919050565b610a9b61101c565b610aa45f61155b565b565b60065481565b5f60065482610abb9190611cf1565b9050919050565b5f47905090565b5f60055f9054906101000a900473ffffffffffffffffffffffffffffffffffffffff16905090565b606060048054610b0090611a60565b80601f0160208091040260200160405190810160405280929190818152602001828054610b2c90611a60565b8015610b775780601f10610b4e57610100808354040283529160200191610b77565b820191905f5260205f20905b815481529060010190602001808311610b5a57829003601f168201915b5050505050905090565b6040518060400160405280600d81526020017f7379664552433230546f6b656e0000000000000000000000000000000000000081525081565b5f80610bc4611306565b90505f610bd18286610e3c565b905083811015610c16576040517f08c379a0000000000000000000000000000000000000000000000000000000008152600401610c0d90611d91565b60405180910390fd5b610c23828686840361130d565b60019250505092915050565b5f60065482610c3e9190611be6565b9050919050565b610c4d61101c565b5f610c5730610a4e565b90505f8111610c9b576040517f08c379a0000000000000000000000000000000000000000000000000000000008152600401610c9290611df9565b60405180910390fd5b610ca630838361109a565b7f6352c5382c4a4578e712449ca65e83cdb392d045dfcf1cad9615189db2da244b8282604051610cd7929190611a0c565b60405180910390a15050565b5f80610ced611306565b9050610cfa81858561109a565b600191505092915050565b5f3411610d47576040517f08c379a0000000000000000000000000000000000000000000000000000000008152600401610d3e90611e87565b60405180910390fd5b5f60065434610d569190611cf1565b90505f8111610d9a576040517f08c379a0000000000000000000000000000000000000000000000000000000008152600401610d9190611b60565b60405180910390fd5b80610dab610da6610ac9565b610a4e565b1015610dec576040517f08c379a0000000000000000000000000000000000000000000000000000000008152600401610de390611eef565b60405180910390fd5b610dfe610df7610ac9565b338361109a565b7f8fafebcaf9d154343dad25669bfa277f4fbacd7ac6b0c4fed522580e040a0f33333483604051610e3193929190611c8f565b60405180910390a150565b5f60015f8473ffffffffffffffffffffffffffffffffffffffff1673ffffffffffffffffffffffffffffffffffffffff1681526020019081526020015f205f8373ffffffffffffffffffffffffffffffffffffffff1673ffffffffffffffffffffffffffffffffffffffff1681526020019081526020015f2054905092915050565b610ec661101c565b80471015610f09576040517f08c379a0000000000000000000000000000000000000000000000000000000008152600401610f0090611c71565b60405180910390fd5b610f11610ac9565b73ffffffffffffffffffffffffffffffffffffffff166108fc8290811502906040515f60405180830381858888f19350505050158015610f53573d5f803e3d5ffd5b5050565b610f5f61101c565b5f73ffffffffffffffffffffffffffffffffffffffff168173ffffffffffffffffffffffffffffffffffffffff1603610fcd576040517f08c379a0000000000000000000000000000000000000000000000000000000008152600401610fc490611f7d565b60405180910390fd5b610fd68161155b565b50565b610fe161101c565b565b6040518060400160405280600381526020017f737966000000000000000000000000000000000000000000000000000000000081525081565b611024611306565b73ffffffffffffffffffffffffffffffffffffffff16611042610ac9565b73ffffffffffffffffffffffffffffffffffffffff1614611098576040517f08c379a000000000000000000000000000000000000000000000000000000000815260040161108f90611fe5565b60405180910390fd5b565b5f73ffffffffffffffffffffffffffffffffffffffff168373ffffffffffffffffffffffffffffffffffffffff1603611108576040517f08c379a00000000000000000000000000000000000000000000000000000000081526004016110ff90612073565b60405180910390fd5b5f73ffffffffffffffffffffffffffffffffffffffff168273ffffffffffffffffffffffffffffffffffffffff1603611176576040517f08c379a000000000000000000000000000000000000000000000000000000000815260040161116d90612101565b60405180910390fd5b61118183838361161e565b5f805f8573ffffffffffffffffffffffffffffffffffffffff1673ffffffffffffffffffffffffffffffffffffffff1681526020019081526020015f2054905081811015611204576040517f08c379a00000000000000000000000000000000000000000000000000000000081526004016111fb9061218f565b60405180910390fd5b8181035f808673ffffffffffffffffffffffffffffffffffffffff1673ffffffffffffffffffffffffffffffffffffffff1681526020019081526020015f2081905550815f808573ffffffffffffffffffffffffffffffffffffffff1673ffffffffffffffffffffffffffffffffffffffff1681526020019081526020015f205f82825401925050819055508273ffffffffffffffffffffffffffffffffffffffff168473ffffffffffffffffffffffffffffffffffffffff167fddf252ad1be2c89b69c2b068fc378daa952ba7f163c4a11628f55a4df523b3ef846040516112ed91906117e3565b60405180910390a3611300848484611623565b50505050565b5f33905090565b5f73ffffffffffffffffffffffffffffffffffffffff168373ffffffffffffffffffffffffffffffffffffffff160361137b576040517f08c379a00000000000000000000000000000000000000000000000000000000081526004016113729061221d565b60405180910390fd5b5f73ffffffffffffffffffffffffffffffffffffffff168273ffffffffffffffffffffffffffffffffffffffff16036113e9576040517f08c379a00000000000000000000000000000000000000000000000000000000081526004016113e0906122ab565b60405180910390fd5b8060015f8573ffffffffffffffffffffffffffffffffffffffff1673ffffffffffffffffffffffffffffffffffffffff1681526020019081526020015f205f8473ffffffffffffffffffffffffffffffffffffffff1673ffffffffffffffffffffffffffffffffffffffff1681526020019081526020015f20819055508173ffffffffffffffffffffffffffffffffffffffff168373ffffffffffffffffffffffffffffffffffffffff167f8c5be1e5ebec7d5bd14f71427d1e84f3dd0314c0f7b2291e5b200ac8c7c3b925836040516114c391906117e3565b60405180910390a3505050565b5f6114db8484610e3c565b90507fffffffffffffffffffffffffffffffffffffffffffffffffffffffffffffffff81146115555781811015611547576040517f08c379a000000000000000000000000000000000000000000000000000000000815260040161153e90612313565b60405180910390fd5b611554848484840361130d565b5b50505050565b5f60055f9054906101000a900473ffffffffffffffffffffffffffffffffffffffff1690508160055f6101000a81548173ffffffffffffffffffffffffffffffffffffffff021916908373ffffffffffffffffffffffffffffffffffffffff1602179055508173ffffffffffffffffffffffffffffffffffffffff168173ffffffffffffffffffffffffffffffffffffffff167f8be0079c531659141344cd1fd0a4f28419497f9722a3daafe3b4186f6b6457e060405160405180910390a35050565b505050565b505050565b5f80fd5b5f73ffffffffffffffffffffffffffffffffffffffff82169050919050565b5f6116558261162c565b9050919050565b6116658161164b565b811461166f575f80fd5b50565b5f813590506116808161165c565b92915050565b5f819050919050565b61169881611686565b81146116a2575f80fd5b50565b5f813590506116b38161168f565b92915050565b5f80604083850312156116cf576116ce611628565b5b5f6116dc85828601611672565b92505060206116ed858286016116a5565b9150509250929050565b5f81519050919050565b5f82825260208201905092915050565b5f5b8381101561172e578082015181840152602081019050611713565b5f8484015250505050565b5f601f19601f8301169050919050565b5f611753826116f7565b61175d8185611701565b935061176d818560208601611711565b61177681611739565b840191505092915050565b5f6020820190508181035f8301526117998184611749565b905092915050565b5f8115159050919050565b6117b5816117a1565b82525050565b5f6020820190506117ce5f8301846117ac565b92915050565b6117dd81611686565b82525050565b5f6020820190506117f65f8301846117d4565b92915050565b5f805f6060848603121561181357611812611628565b5b5f61182086828701611672565b935050602061183186828701611672565b9250506040611842868287016116a5565b9150509250925092565b5f60ff82169050919050565b6118618161184c565b82525050565b5f60208201905061187a5f830184611858565b92915050565b5f6020828403121561189557611894611628565b5b5f6118a2848285016116a5565b91505092915050565b5f602082840312156118c0576118bf611628565b5b5f6118cd84828501611672565b91505092915050565b6118df8161164b565b82525050565b5f6020820190506118f85f8301846118d6565b92915050565b5f806040838503121561191457611913611628565b5b5f61192185828601611672565b925050602061193285828601611672565b9150509250929050565b7f43616e6e6f7420776974686472617720746f207a65726f2061646472657373005f82015250565b5f611970601f83611701565b915061197b8261193c565b602082019050919050565b5f6020820190508181035f83015261199d81611964565b9050919050565b7f4e6f7420656e6f75676820746f6b656e7320696e20636f6e74726163740000005f82015250565b5f6119d8601d83611701565b91506119e3826119a4565b602082019050919050565b5f6020820190508181035f830152611a05816119cc565b9050919050565b5f604082019050611a1f5f8301856118d6565b611a2c60208301846117d4565b9392505050565b7f4e487b71000000000000000000000000000000000000000000000000000000005f52602260045260245ffd5b5f6002820490506001821680611a7757607f821691505b602082108103611a8a57611a89611a33565b5b50919050565b7f4e487b71000000000000000000000000000000000000000000000000000000005f52601160045260245ffd5b5f611ac782611686565b9150611ad283611686565b9250828201905080821115611aea57611ae9611a90565b5b92915050565b7f546f6b656e20616d6f756e74206d7573742062652067726561746572207468615f8201527f6e20300000000000000000000000000000000000000000000000000000000000602082015250565b5f611b4a602383611701565b9150611b5582611af0565b604082019050919050565b5f6020820190508181035f830152611b7781611b3e565b9050919050565b7f4e6f7420656e6f75676820746f6b656e730000000000000000000000000000005f82015250565b5f611bb2601183611701565b9150611bbd82611b7e565b602082019050919050565b5f6020820190508181035f830152611bdf81611ba6565b9050919050565b5f611bf082611686565b9150611bfb83611686565b9250828202611c0981611686565b91508282048414831517611c2057611c1f611a90565b5b5092915050565b7f4e6f7420656e6f7567682045544820696e20636f6e74726163740000000000005f82015250565b5f611c5b601a83611701565b9150611c6682611c27565b602082019050919050565b5f6020820190508181035f830152611c8881611c4f565b9050919050565b5f606082019050611ca25f8301866118d6565b611caf60208301856117d4565b611cbc60408301846117d4565b949350505050565b7f4e487b71000000000000000000000000000000000000000000000000000000005f52601260045260245ffd5b5f611cfb82611686565b9150611d0683611686565b925082611d1657611d15611cc4565b5b828204905092915050565b7f45524332303a2064656372656173656420616c6c6f77616e63652062656c6f775f8201527f207a65726f000000000000000000000000000000000000000000000000000000602082015250565b5f611d7b602583611701565b9150611d8682611d21565b604082019050919050565b5f6020820190508181035f830152611da881611d6f565b9050919050565b7f4e6f20746f6b656e7320746f20776974686472617700000000000000000000005f82015250565b5f611de3601583611701565b9150611dee82611daf565b602082019050919050565b5f6020820190508181035f830152611e1081611dd7565b9050919050565b7f45544820616d6f756e74206d7573742062652067726561746572207468616e205f8201527f3000000000000000000000000000000000000000000000000000000000000000602082015250565b5f611e71602183611701565b9150611e7c82611e17565b604082019050919050565b5f6020820190508181035f830152611e9e81611e65565b9050919050565b7f4e6f7420656e6f75676820746f6b656e7320617661696c61626c6500000000005f82015250565b5f611ed9601b83611701565b9150611ee482611ea5565b602082019050919050565b5f6020820190508181035f830152611f0681611ecd565b9050919050565b7f4f776e61626c653a206e6577206f776e657220697320746865207a65726f20615f8201527f6464726573730000000000000000000000000000000000000000000000000000602082015250565b5f611f67602683611701565b9150611f7282611f0d565b604082019050919050565b5f6020820190508181035f830152611f9481611f5b565b9050919050565b7f4f776e61626c653a2063616c6c6572206973206e6f7420746865206f776e65725f82015250565b5f611fcf602083611701565b9150611fda82611f9b565b602082019050919050565b5f6020820190508181035f830152611ffc81611fc3565b9050919050565b7f45524332303a207472616e736665722066726f6d20746865207a65726f2061645f8201527f6472657373000000000000000000000000000000000000000000000000000000602082015250565b5f61205d602583611701565b915061206882612003565b604082019050919050565b5f6020820190508181035f83015261208a81612051565b9050919050565b7f45524332303a207472616e7366657220746f20746865207a65726f20616464725f8201527f6573730000000000000000000000000000000000000000000000000000000000602082015250565b5f6120eb602383611701565b91506120f682612091565b604082019050919050565b5f6020820190508181035f830152612118816120df565b9050919050565b7f45524332303a207472616e7366657220616d6f756e74206578636565647320625f8201527f616c616e63650000000000000000000000000000000000000000000000000000602082015250565b5f612179602683611701565b91506121848261211f565b604082019050919050565b5f6020820190508181035f8301526121a68161216d565b9050919050565b7f45524332303a20617070726f76652066726f6d20746865207a65726f206164645f8201527f7265737300000000000000000000000000000000000000000000000000000000602082015250565b5f612207602483611701565b9150612212826121ad565b604082019050919050565b5f6020820190508181035f830152612234816121fb565b9050919050565b7f45524332303a20617070726f766520746f20746865207a65726f2061646472655f8201527f7373000000000000000000000000000000000000000000000000000000000000602082015250565b5f612295602283611701565b91506122a08261223b565b604082019050919050565b5f6020820190508181035f8301526122c281612289565b9050919050565b7f45524332303a20696e73756666696369656e7420616c6c6f77616e63650000005f82015250565b5f6122fd601d83611701565b9150612308826122c9565b602082019050919050565b5f6020820190508181035f83015261232a816122f1565b905091905056fea26469706673582212208c462452e4c27d2176f462e640c22969308b3bd20e48fbb902d72b3a3afd58de64736f6c63430008140033",
  "immutableReferences": {},
  "source": "// SPDX-License-Identifier: GPL-3.0\npragma solidity >=0.8.20 <0.9.0;\n\nimport \"@openzeppelin/contracts/token/ERC20/ERC20.sol\";\nimport \"@openzeppelin/contracts/access/Ownable.sol\";\n\ncontract MetaCoin is ERC20, Ownable {\n    string public constant NAME = \"syfERC20Token\";\n    string public constant SYMBOL = \"syf\";\n    uint256 public constant INITIAL_SUPPLY = 10000;\n\n    // 1 ETH = 1000 syf \n    uint256 public tokenPrice = 0.001 ether; // 1 syf = 0.001 ETH\n\n    event TokensPurchased(\n        address buyer,\n        uint256 ethAmount,\n        uint256 tokenAmount\n    );\n    event TokensSold(address seller, uint256 tokenAmount, uint256 ethAmount);\n    event TokensWithdrawn(address to, uint256 amount);\n\n    constructor() ERC20(NAME, SYMBOL) {\n        _mint(msg.sender, INITIAL_SUPPLY);\n    }\n\n    function decimals() public view virtual override returns (uint8) {\n        return 0;\n    }\n\n    // \n    function buyTokens() external payable {\n        require(msg.value > 0, \"ETH amount must be greater than 0\");\n\n        uint256 tokenAmount = msg.value / tokenPrice;\n        require(tokenAmount > 0, \"Token amount must be greater than 0\");\n        require(\n            balanceOf(owner()) >= tokenAmount,\n            \"Not enough tokens available\"\n        );\n\n        // \n        _transfer(owner(), msg.sender, tokenAmount);\n\n        emit TokensPurchased(msg.sender, msg.value, tokenAmount);\n    }\n\n    // \n    function sellTokens(uint256 tokenAmount) external {\n        require(tokenAmount > 0, \"Token amount must be greater than 0\");\n        require(balanceOf(msg.sender) >= tokenAmount, \"Not enough tokens\");\n\n        uint256 ethAmount = tokenAmount * tokenPrice;\n        require(\n            address(this).balance >= ethAmount,\n            \"Not enough ETH in contract\"\n        );\n\n        // \n        _transfer(msg.sender, owner(), tokenAmount);\n\n        //  ETH \n        payable(msg.sender).transfer(ethAmount);\n\n        emit TokensSold(msg.sender, tokenAmount, ethAmount);\n    }\n\n    // \n    function setTokenPrice(uint256 _tokenPrice) external onlyOwner {\n        tokenPrice = _tokenPrice;\n    }\n\n    //  ETH\n    function depositETH() external payable onlyOwner {\n        // ETH \n    }\n\n    //  ETH\n    function withdrawETH(uint256 amount) external onlyOwner {\n        require(address(this).balance >= amount, \"Not enough ETH in contract\");\n        payable(owner()).transfer(amount);\n    }\n\n    // \n    function withdrawTokens(address to, uint256 amount) external onlyOwner {\n        require(to != address(0), \"Cannot withdraw to zero address\");\n        require(\n            balanceOf(address(this)) >= amount,\n            \"Not enough tokens in contract\"\n        );\n\n        _transfer(address(this), to, amount);\n\n        emit TokensWithdrawn(to, amount);\n    }\n\n    // \n    function withdrawAllTokens(address to) external onlyOwner {\n        uint256 contractBalance = balanceOf(address(this));\n        require(contractBalance > 0, \"No tokens to withdraw\");\n\n        _transfer(address(this), to, contractBalance);\n\n        emit TokensWithdrawn(to, contractBalance);\n    }\n\n    //  ETH \n    function getContractETHBalance() external view returns (uint256) {\n        return address(this).balance;\n    }\n\n    //  ETH\n    function calculateETHForTokens(\n        uint256 tokenAmount\n    ) external view returns (uint256) {\n        return tokenAmount * tokenPrice;\n    }\n\n    //  ETH \n    function calculateTokensForETH(\n        uint256 ethAmount\n    ) external view returns (uint256) {\n        return ethAmount / tokenPrice;\n    }\n}\n",
  "sourcePath": "/Users/syefeng/Desktop/yd-study/coin-syf/contracts/MetaCoin.sol",
  "compiler": {
    "name": "solc",
    "version": "0.8.20+commit.a1b79de6.Emscripten.clang"
  },
  "schemaVersion": "3.4.16",
  "updatedAt": "2025-06-03T02:02:34.439Z",
  "devdoc": {
    "events": {
      "Approval(address,address,uint256)": {
        "details": "Emitted when the allowance of a `spender` for an `owner` is set by a call to {approve}. `value` is the new allowance."
      },
      "Transfer(address,address,uint256)": {
        "details": "Emitted when `value` tokens are moved from one account (`from`) to another (`to`). Note that `value` may be zero."
      }
    },
    "kind": "dev",
    "methods": {
      "allowance(address,address)": {
        "details": "See {IERC20-allowance}."
      },
      "approve(address,uint256)": {
        "details": "See {IERC20-approve}. NOTE: If `amount` is the maximum `uint256`, the allowance is not updated on `transferFrom`. This is semantically equivalent to an infinite approval. Requirements: - `spender` cannot be the zero address."
      },
      "balanceOf(address)": {
        "details": "See {IERC20-balanceOf}."
      },
      "decimals()": {
        "details": "Returns the number of decimals used to get its user representation. For example, if `decimals` equals `2`, a balance of `505` tokens should be displayed to a user as `5.05` (`505 / 10 ** 2`). Tokens usually opt for a value of 18, imitating the relationship between Ether and Wei. This is the default value returned by this function, unless it's overridden. NOTE: This information is only used for _display_ purposes: it in no way affects any of the arithmetic of the contract, including {IERC20-balanceOf} and {IERC20-transfer}."
      },
      "decreaseAllowance(address,uint256)": {
        "details": "Atomically decreases the allowance granted to `spender` by the caller. This is an alternative to {approve} that can be used as a mitigation for problems described in {IERC20-approve}. Emits an {Approval} event indicating the updated allowance. Requirements: - `spender` cannot be the zero address. - `spender` must have allowance for the caller of at least `subtractedValue`."
      },
      "increaseAllowance(address,uint256)": {
        "details": "Atomically increases the allowance granted to `spender` by the caller. This is an alternative to {approve} that can be used as a mitigation for problems described in {IERC20-approve}. Emits an {Approval} event indicating the updated allowance. Requirements: - `spender` cannot be the zero address."
      },
      "name()": {
        "details": "Returns the name of the token."
      },
      "owner()": {
        "details": "Returns the address of the current owner."
      },
      "renounceOwnership()": {
        "details": "Leaves the contract without owner. It will not be possible to call `onlyOwner` functions. Can only be called by the current owner. NOTE: Renouncing ownership will leave the contract without an owner, thereby disabling any functionality that is only available to the owner."
      },
      "symbol()": {
        "details": "Returns the symbol of the token, usually a shorter version of the name."
      },
      "totalSupply()": {
        "details": "See {IERC20-totalSupply}."
      },
      "transfer(address,uint256)": {
        "details": "See {IERC20-transfer}. Requirements: - `to` cannot be the zero address. - the caller must have a balance of at least `amount`."
      },
      "transferFrom(address,address,uint256)": {
        "details": "See {IERC20-transferFrom}. Emits an {Approval} event indicating the updated allowance. This is not required by the EIP. See the note at the beginning of {ERC20}. NOTE: Does not update the allowance if the current allowance is the maximum `uint256`. Requirements: - `from` and `to` cannot be the zero address. - `from` must have a balance of at least `amount`. - the caller must have allowance for ``from``'s tokens of at least `amount`."
      },
      "transferOwnership(address)": {
        "details": "Transfers ownership of the contract to a new account (`newOwner`). Can only be called by the current owner."
      }
    },
    "version": 1
  },
  "userdoc": {
    "kind": "user",
    "methods": {},
    "version": 1
  }
}